{
	"SimpleStorage.sol": {
		"SimpleStorage": {
			"abi": [
				{
					"anonymous": false,
					"inputs": [
						{
							"indexed": false,
							"internalType": "uint256",
							"name": "newNumber",
							"type": "uint256"
						},
						{
							"indexed": false,
							"internalType": "address",
							"name": "updatedBy",
							"type": "address"
						}
					],
					"name": "NumberUpdated",
					"type": "event"
				},
				{
					"inputs": [],
					"name": "activateContract",
					"outputs": [],
					"stateMutability": "nonpayable",
					"type": "function"
				},
				{
					"inputs": [
						{
							"internalType": "uint256",
							"name": "_number",
							"type": "uint256"
						}
					],
					"name": "addFavoriteNumber",
					"outputs": [],
					"stateMutability": "nonpayable",
					"type": "function"
				},
				{
					"inputs": [
						{
							"internalType": "string",
							"name": "_name",
							"type": "string"
						},
						{
							"internalType": "uint256",
							"name": "_favoriteNumber",
							"type": "uint256"
						}
					],
					"name": "addPerson",
					"outputs": [],
					"stateMutability": "nonpayable",
					"type": "function"
				},
				{
					"inputs": [],
					"name": "callInternalFunction",
					"outputs": [
						{
							"internalType": "string",
							"name": "",
							"type": "string"
						}
					],
					"stateMutability": "pure",
					"type": "function"
				},
				{
					"inputs": [
						{
							"internalType": "string",
							"name": "_inputString",
							"type": "string"
						}
					],
					"name": "concatenateString",
					"outputs": [
						{
							"internalType": "string",
							"name": "",
							"type": "string"
						}
					],
					"stateMutability": "pure",
					"type": "function"
				},
				{
					"inputs": [],
					"name": "deactivateContract",
					"outputs": [],
					"stateMutability": "nonpayable",
					"type": "function"
				},
				{
					"inputs": [],
					"name": "externalFunction",
					"outputs": [
						{
							"internalType": "string",
							"name": "",
							"type": "string"
						}
					],
					"stateMutability": "pure",
					"type": "function"
				},
				{
					"inputs": [
						{
							"internalType": "uint256",
							"name": "",
							"type": "uint256"
						}
					],
					"name": "favoriteNumbers",
					"outputs": [
						{
							"internalType": "uint256",
							"name": "",
							"type": "uint256"
						}
					],
					"stateMutability": "view",
					"type": "function"
				},
				{
					"inputs": [],
					"name": "getFavoriteNumber",
					"outputs": [
						{
							"internalType": "uint256",
							"name": "",
							"type": "uint256"
						}
					],
					"stateMutability": "view",
					"type": "function"
				},
				{
					"inputs": [],
					"name": "isActive",
					"outputs": [
						{
							"internalType": "bool",
							"name": "",
							"type": "bool"
						}
					],
					"stateMutability": "view",
					"type": "function"
				},
				{
					"inputs": [
						{
							"internalType": "uint256",
							"name": "_value",
							"type": "uint256"
						}
					],
					"name": "isGreaterThan",
					"outputs": [
						{
							"internalType": "bool",
							"name": "",
							"type": "bool"
						}
					],
					"stateMutability": "view",
					"type": "function"
				},
				{
					"inputs": [
						{
							"internalType": "string",
							"name": "",
							"type": "string"
						}
					],
					"name": "nameToFavoriteNumber",
					"outputs": [
						{
							"internalType": "uint256",
							"name": "",
							"type": "uint256"
						}
					],
					"stateMutability": "view",
					"type": "function"
				},
				{
					"inputs": [
						{
							"internalType": "uint256",
							"name": "",
							"type": "uint256"
						}
					],
					"name": "people",
					"outputs": [
						{
							"internalType": "string",
							"name": "name",
							"type": "string"
						},
						{
							"internalType": "uint256",
							"name": "favoriteNumber",
							"type": "uint256"
						}
					],
					"stateMutability": "view",
					"type": "function"
				},
				{
					"inputs": [],
					"name": "state",
					"outputs": [
						{
							"internalType": "enum SimpleStorage.ContractState",
							"name": "",
							"type": "uint8"
						}
					],
					"stateMutability": "view",
					"type": "function"
				},
				{
					"inputs": [
						{
							"internalType": "uint256",
							"name": "_number",
							"type": "uint256"
						}
					],
					"name": "storeNumber",
					"outputs": [],
					"stateMutability": "nonpayable",
					"type": "function"
				},
				{
					"inputs": [],
					"name": "sumToFavoriteNumber",
					"outputs": [
						{
							"internalType": "uint256",
							"name": "",
							"type": "uint256"
						}
					],
					"stateMutability": "view",
					"type": "function"
				},
				{
					"inputs": [],
					"name": "testExternalFunction",
					"outputs": [
						{
							"internalType": "string",
							"name": "",
							"type": "string"
						}
					],
					"stateMutability": "view",
					"type": "function"
				},
				{
					"inputs": [
						{
							"internalType": "uint256",
							"name": "_newNumber",
							"type": "uint256"
						}
					],
					"name": "updateNumber",
					"outputs": [
						{
							"internalType": "uint256",
							"name": "",
							"type": "uint256"
						}
					],
					"stateMutability": "pure",
					"type": "function"
				}
			],
			"devdoc": {
				"kind": "dev",
				"methods": {},
				"version": 1
			},
			"evm": {
				"assembly": "    /* \"SimpleStorage.sol\":61:3696  contract SimpleStorage {... */\n  mstore(0x40, 0x80)\n  callvalue\n  dup1\n  iszero\n  tag_1\n  jumpi\n  0x00\n  dup1\n  revert\ntag_1:\n  pop\n  dataSize(sub_0)\n  dup1\n  dataOffset(sub_0)\n  0x00\n  codecopy\n  0x00\n  return\nstop\n\nsub_0: assembly {\n        /* \"SimpleStorage.sol\":61:3696  contract SimpleStorage {... */\n      mstore(0x40, 0x80)\n      callvalue\n      dup1\n      iszero\n      tag_1\n      jumpi\n      0x00\n      dup1\n      revert\n    tag_1:\n      pop\n      jumpi(tag_2, lt(calldatasize, 0x04))\n      shr(0xe0, calldataload(0x00))\n      dup1\n      0x9e7a13ad\n      gt\n      tag_21\n      jumpi\n      dup1\n      0xb6339418\n      gt\n      tag_22\n      jumpi\n      dup1\n      0xb6339418\n      eq\n      tag_16\n      jumpi\n      dup1\n      0xbca353be\n      eq\n      tag_17\n      jumpi\n      dup1\n      0xc19d93fb\n      eq\n      tag_18\n      jumpi\n      dup1\n      0xcb6a33f8\n      eq\n      tag_19\n      jumpi\n      dup1\n      0xe0819c9a\n      eq\n      tag_20\n      jumpi\n      jump(tag_2)\n    tag_22:\n      dup1\n      0x9e7a13ad\n      eq\n      tag_12\n      jumpi\n      dup1\n      0xa621d15e\n      eq\n      tag_13\n      jumpi\n      dup1\n      0xa7e1a364\n      eq\n      tag_14\n      jumpi\n      dup1\n      0xb39e12b5\n      eq\n      tag_15\n      jumpi\n      jump(tag_2)\n    tag_21:\n      dup1\n      0x3a32b549\n      gt\n      tag_23\n      jumpi\n      dup1\n      0x3a32b549\n      eq\n      tag_7\n      jumpi\n      dup1\n      0x6f760f41\n      eq\n      tag_8\n      jumpi\n      dup1\n      0x8701f8ca\n      eq\n      tag_9\n      jumpi\n      dup1\n      0x8bab8dd5\n      eq\n      tag_10\n      jumpi\n      dup1\n      0x8fda356d\n      eq\n      tag_11\n      jumpi\n      jump(tag_2)\n    tag_23:\n      dup1\n      0x0cd2636e\n      eq\n      tag_3\n      jumpi\n      dup1\n      0x1db05a88\n      eq\n      tag_4\n      jumpi\n      dup1\n      0x22f3e2d4\n      eq\n      tag_5\n      jumpi\n      dup1\n      0x29cd1d96\n      eq\n      tag_6\n      jumpi\n    tag_2:\n      0x00\n      dup1\n      revert\n        /* \"SimpleStorage.sol\":1314:1502  function sumToFavoriteNumber() public view returns (uint256) {... */\n    tag_3:\n      tag_24\n      tag_25\n      jump\t// in\n    tag_24:\n      mload(0x40)\n      tag_26\n      swap2\n      swap1\n      tag_27\n      jump\t// in\n    tag_26:\n      mload(0x40)\n      dup1\n      swap2\n      sub\n      swap1\n      return\n        /* \"SimpleStorage.sol\":3086:3304  function updateNumber(uint256 _newNumber) public pure  returns (uint256) {... */\n    tag_4:\n      tag_28\n      0x04\n      dup1\n      calldatasize\n      sub\n      dup2\n      add\n      swap1\n      tag_29\n      swap2\n      swap1\n      tag_30\n      jump\t// in\n    tag_29:\n      tag_31\n      jump\t// in\n    tag_28:\n      mload(0x40)\n      tag_32\n      swap2\n      swap1\n      tag_27\n      jump\t// in\n    tag_32:\n      mload(0x40)\n      dup1\n      swap2\n      sub\n      swap1\n      return\n        /* \"SimpleStorage.sol\":2672:2774  function isActive() public view returns (bool){... */\n    tag_5:\n      tag_33\n      tag_34\n      jump\t// in\n    tag_33:\n      mload(0x40)\n      tag_35\n      swap2\n      swap1\n      tag_36\n      jump\t// in\n    tag_35:\n      mload(0x40)\n      dup1\n      swap2\n      sub\n      swap1\n      return\n        /* \"SimpleStorage.sol\":165:197  uint256[] public favoriteNumbers */\n    tag_6:\n      tag_37\n      0x04\n      dup1\n      calldatasize\n      sub\n      dup2\n      add\n      swap1\n      tag_38\n      swap2\n      swap1\n      tag_30\n      jump\t// in\n    tag_38:\n      tag_39\n      jump\t// in\n    tag_37:\n      mload(0x40)\n      tag_40\n      swap2\n      swap1\n      tag_27\n      jump\t// in\n    tag_40:\n      mload(0x40)\n      dup1\n      swap2\n      sub\n      swap1\n      return\n        /* \"SimpleStorage.sol\":1839:1964  function externalFunction() external pure returns (string memory){... */\n    tag_7:\n      tag_41\n      tag_42\n      jump\t// in\n    tag_41:\n      mload(0x40)\n      tag_43\n      swap2\n      swap1\n      tag_44\n      jump\t// in\n    tag_43:\n      mload(0x40)\n      dup1\n      swap2\n      sub\n      swap1\n      return\n        /* \"SimpleStorage.sol\":2348:2483  function addPerson(string memory _name, uint256 _favoriteNumber) public{... */\n    tag_8:\n      tag_45\n      0x04\n      dup1\n      calldatasize\n      sub\n      dup2\n      add\n      swap1\n      tag_46\n      swap2\n      swap1\n      tag_47\n      jump\t// in\n    tag_46:\n      tag_48\n      jump\t// in\n    tag_45:\n      stop\n        /* \"SimpleStorage.sol\":1696:1806  function callInternalFunction() public pure returns (string memory){... */\n    tag_9:\n      tag_49\n      tag_50\n      jump\t// in\n    tag_49:\n      mload(0x40)\n      tag_51\n      swap2\n      swap1\n      tag_44\n      jump\t// in\n    tag_51:\n      mload(0x40)\n      dup1\n      swap2\n      sub\n      swap1\n      return\n        /* \"SimpleStorage.sol\":2782:2836  mapping(string => uint256) public nameToFavoriteNumber */\n    tag_10:\n      tag_52\n      0x04\n      dup1\n      calldatasize\n      sub\n      dup2\n      add\n      swap1\n      tag_53\n      swap2\n      swap1\n      tag_54\n      jump\t// in\n    tag_53:\n      tag_55\n      jump\t// in\n    tag_52:\n      mload(0x40)\n      tag_56\n      swap2\n      swap1\n      tag_27\n      jump\t// in\n    tag_56:\n      mload(0x40)\n      dup1\n      swap2\n      sub\n      swap1\n      return\n        /* \"SimpleStorage.sol\":2491:2572  function activateContract() public{... */\n    tag_11:\n      tag_57\n      tag_58\n      jump\t// in\n    tag_57:\n      stop\n        /* \"SimpleStorage.sol\":462:484  Person[] public people */\n    tag_12:\n      tag_59\n      0x04\n      dup1\n      calldatasize\n      sub\n      dup2\n      add\n      swap1\n      tag_60\n      swap2\n      swap1\n      tag_30\n      jump\t// in\n    tag_60:\n      tag_61\n      jump\t// in\n    tag_59:\n      mload(0x40)\n      tag_62\n      swap3\n      swap2\n      swap1\n      tag_63\n      jump\t// in\n    tag_62:\n      mload(0x40)\n      dup1\n      swap2\n      sub\n      swap1\n      return\n        /* \"SimpleStorage.sol\":1082:1180  function getFavoriteNumber() public view returns (uint256) {... */\n    tag_13:\n      tag_64\n      tag_65\n      jump\t// in\n    tag_64:\n      mload(0x40)\n      tag_66\n      swap2\n      swap1\n      tag_27\n      jump\t// in\n    tag_66:\n      mload(0x40)\n      dup1\n      swap2\n      sub\n      swap1\n      return\n        /* \"SimpleStorage.sol\":2196:2294  function addFavoriteNumber(uint256 _number) public{... */\n    tag_14:\n      tag_67\n      0x04\n      dup1\n      calldatasize\n      sub\n      dup2\n      add\n      swap1\n      tag_68\n      swap2\n      swap1\n      tag_30\n      jump\t// in\n    tag_68:\n      tag_69\n      jump\t// in\n    tag_67:\n      stop\n        /* \"SimpleStorage.sol\":3417:3691  function concatenateString(string calldata _inputString) public pure returns (string memory) {... */\n    tag_15:\n      tag_70\n      0x04\n      dup1\n      calldatasize\n      sub\n      dup2\n      add\n      swap1\n      tag_71\n      swap2\n      swap1\n      tag_72\n      jump\t// in\n    tag_71:\n      tag_73\n      jump\t// in\n    tag_70:\n      mload(0x40)\n      tag_74\n      swap2\n      swap1\n      tag_44\n      jump\t// in\n    tag_74:\n      mload(0x40)\n      dup1\n      swap2\n      sub\n      swap1\n      return\n        /* \"SimpleStorage.sol\":853:1074  function storeNumber(uint256 _number) public {... */\n    tag_16:\n      tag_75\n      0x04\n      dup1\n      calldatasize\n      sub\n      dup2\n      add\n      swap1\n      tag_76\n      swap2\n      swap1\n      tag_30\n      jump\t// in\n    tag_76:\n      tag_77\n      jump\t// in\n    tag_75:\n      stop\n        /* \"SimpleStorage.sol\":2580:2665  function deactivateContract() public{... */\n    tag_17:\n      tag_78\n      tag_79\n      jump\t// in\n    tag_78:\n      stop\n        /* \"SimpleStorage.sol\":764:790  ContractState public state */\n    tag_18:\n      tag_80\n      tag_81\n      jump\t// in\n    tag_80:\n      mload(0x40)\n      tag_82\n      swap2\n      swap1\n      tag_83\n      jump\t// in\n    tag_82:\n      mload(0x40)\n      dup1\n      swap2\n      sub\n      swap1\n      return\n        /* \"SimpleStorage.sol\":1192:1306  function isGreaterThan(uint256 _value) public view returns (bool){... */\n    tag_19:\n      tag_84\n      0x04\n      dup1\n      calldatasize\n      sub\n      dup2\n      add\n      swap1\n      tag_85\n      swap2\n      swap1\n      tag_30\n      jump\t// in\n    tag_85:\n      tag_86\n      jump\t// in\n    tag_84:\n      mload(0x40)\n      tag_87\n      swap2\n      swap1\n      tag_36\n      jump\t// in\n    tag_87:\n      mload(0x40)\n      dup1\n      swap2\n      sub\n      swap1\n      return\n        /* \"SimpleStorage.sol\":2021:2137  function testExternalFunction() public view returns (string memory){... */\n    tag_20:\n      tag_88\n      tag_89\n      jump\t// in\n    tag_88:\n      mload(0x40)\n      tag_90\n      swap2\n      swap1\n      tag_44\n      jump\t// in\n    tag_90:\n      mload(0x40)\n      dup1\n      swap2\n      sub\n      swap1\n      return\n        /* \"SimpleStorage.sol\":1314:1502  function sumToFavoriteNumber() public view returns (uint256) {... */\n    tag_25:\n        /* \"SimpleStorage.sol\":1366:1373  uint256 */\n      0x00\n        /* \"SimpleStorage.sol\":1383:1394  uint256 sum */\n      dup1\n        /* \"SimpleStorage.sol\":1397:1398  0 */\n      0x00\n        /* \"SimpleStorage.sol\":1383:1398  uint256 sum = 0 */\n      swap1\n      pop\n        /* \"SimpleStorage.sol\":1411:1420  uint256 i */\n      0x00\n        /* \"SimpleStorage.sol\":1423:1424  1 */\n      0x01\n        /* \"SimpleStorage.sol\":1411:1424  uint256 i = 1 */\n      swap1\n      pop\n        /* \"SimpleStorage.sol\":1406:1481  for (uint256 i = 1; i <= favoriteNumber; i++) {... */\n    tag_92:\n        /* \"SimpleStorage.sol\":1431:1445  favoriteNumber */\n      sload(0x00)\n        /* \"SimpleStorage.sol\":1426:1427  i */\n      dup2\n        /* \"SimpleStorage.sol\":1426:1445  i <= favoriteNumber */\n      gt\n        /* \"SimpleStorage.sol\":1406:1481  for (uint256 i = 1; i <= favoriteNumber; i++) {... */\n      tag_93\n      jumpi\n        /* \"SimpleStorage.sol\":1471:1472  i */\n      dup1\n        /* \"SimpleStorage.sol\":1464:1472  sum += i */\n      dup3\n      tag_95\n      swap2\n      swap1\n      tag_96\n      jump\t// in\n    tag_95:\n      swap2\n      pop\n        /* \"SimpleStorage.sol\":1447:1450  i++ */\n      dup1\n      dup1\n      tag_97\n      swap1\n      tag_98\n      jump\t// in\n    tag_97:\n      swap2\n      pop\n      pop\n        /* \"SimpleStorage.sol\":1406:1481  for (uint256 i = 1; i <= favoriteNumber; i++) {... */\n      jump(tag_92)\n    tag_93:\n      pop\n        /* \"SimpleStorage.sol\":1495:1498  sum */\n      dup1\n        /* \"SimpleStorage.sol\":1488:1498  return sum */\n      swap2\n      pop\n      pop\n        /* \"SimpleStorage.sol\":1314:1502  function sumToFavoriteNumber() public view returns (uint256) {... */\n      swap1\n      jump\t// out\n        /* \"SimpleStorage.sol\":3086:3304  function updateNumber(uint256 _newNumber) public pure  returns (uint256) {... */\n    tag_31:\n        /* \"SimpleStorage.sol\":3150:3157  uint256 */\n      0x00\n        /* \"SimpleStorage.sol\":3233:3251  uint256 tempNumber */\n      dup1\n        /* \"SimpleStorage.sol\":3267:3268  5 */\n      0x05\n        /* \"SimpleStorage.sol\":3254:3264  _newNumber */\n      dup4\n        /* \"SimpleStorage.sol\":3254:3268  _newNumber + 5 */\n      tag_100\n      swap2\n      swap1\n      tag_96\n      jump\t// in\n    tag_100:\n        /* \"SimpleStorage.sol\":3233:3268  uint256 tempNumber = _newNumber + 5 */\n      swap1\n      pop\n        /* \"SimpleStorage.sol\":3286:3296  tempNumber */\n      dup1\n        /* \"SimpleStorage.sol\":3279:3296  return tempNumber */\n      swap2\n      pop\n      pop\n        /* \"SimpleStorage.sol\":3086:3304  function updateNumber(uint256 _newNumber) public pure  returns (uint256) {... */\n      swap2\n      swap1\n      pop\n      jump\t// out\n        /* \"SimpleStorage.sol\":2672:2774  function isActive() public view returns (bool){... */\n    tag_34:\n        /* \"SimpleStorage.sol\":2713:2717  bool */\n      0x00\n        /* \"SimpleStorage.sol\":2745:2765  ContractState.Active */\n      dup1\n        /* \"SimpleStorage.sol\":2736:2765  state == ContractState.Active */\n      0x01\n      dup2\n      gt\n      iszero\n      tag_102\n      jumpi\n      tag_103\n      tag_104\n      jump\t// in\n    tag_103:\n    tag_102:\n        /* \"SimpleStorage.sol\":2736:2741  state */\n      0x03\n      0x00\n      swap1\n      sload\n      swap1\n      0x0100\n      exp\n      swap1\n      div\n      0xff\n      and\n        /* \"SimpleStorage.sol\":2736:2765  state == ContractState.Active */\n      0x01\n      dup2\n      gt\n      iszero\n      tag_105\n      jumpi\n      tag_106\n      tag_104\n      jump\t// in\n    tag_106:\n    tag_105:\n      eq\n        /* \"SimpleStorage.sol\":2729:2765  return state == ContractState.Active */\n      swap1\n      pop\n        /* \"SimpleStorage.sol\":2672:2774  function isActive() public view returns (bool){... */\n      swap1\n      jump\t// out\n        /* \"SimpleStorage.sol\":165:197  uint256[] public favoriteNumbers */\n    tag_39:\n      0x01\n      dup2\n      dup2\n      sload\n      dup2\n      lt\n      tag_107\n      jumpi\n      0x00\n      dup1\n      revert\n    tag_107:\n      swap1\n      0x00\n      mstore\n      keccak256(0x00, 0x20)\n      add\n      0x00\n      swap2\n      pop\n      swap1\n      pop\n      sload\n      dup2\n      jump\t// out\n        /* \"SimpleStorage.sol\":1839:1964  function externalFunction() external pure returns (string memory){... */\n    tag_42:\n        /* \"SimpleStorage.sol\":1890:1903  string memory */\n      0x60\n        /* \"SimpleStorage.sol\":1915:1956  return \"Hope you are having a great time\" */\n      mload(0x40)\n      dup1\n      0x40\n      add\n      0x40\n      mstore\n      dup1\n      0x20\n      dup2\n      mstore\n      0x20\n      add\n      0x486f706520796f752061726520686176696e6720612067726561742074696d65\n      dup2\n      mstore\n      pop\n      swap1\n      pop\n        /* \"SimpleStorage.sol\":1839:1964  function externalFunction() external pure returns (string memory){... */\n      swap1\n      jump\t// out\n        /* \"SimpleStorage.sol\":2348:2483  function addPerson(string memory _name, uint256 _favoriteNumber) public{... */\n    tag_48:\n        /* \"SimpleStorage.sol\":2460:2475  _favoriteNumber */\n      dup1\n        /* \"SimpleStorage.sol\":2430:2450  nameToFavoriteNumber */\n      0x04\n        /* \"SimpleStorage.sol\":2451:2456  _name */\n      dup4\n        /* \"SimpleStorage.sol\":2430:2457  nameToFavoriteNumber[_name] */\n      mload(0x40)\n      tag_111\n      swap2\n      swap1\n      tag_112\n      jump\t// in\n    tag_111:\n      swap1\n      dup2\n      mstore\n      0x20\n      add\n      mload(0x40)\n      dup1\n      swap2\n      sub\n      swap1\n      keccak256\n        /* \"SimpleStorage.sol\":2430:2475  nameToFavoriteNumber[_name] = _favoriteNumber */\n      dup2\n      swap1\n      sstore\n      pop\n        /* \"SimpleStorage.sol\":2348:2483  function addPerson(string memory _name, uint256 _favoriteNumber) public{... */\n      pop\n      pop\n      jump\t// out\n        /* \"SimpleStorage.sol\":1696:1806  function callInternalFunction() public pure returns (string memory){... */\n    tag_50:\n        /* \"SimpleStorage.sol\":1749:1762  string memory */\n      0x60\n        /* \"SimpleStorage.sol\":1781:1798  internalFuction() */\n      tag_114\n        /* \"SimpleStorage.sol\":1781:1796  internalFuction */\n      tag_115\n        /* \"SimpleStorage.sol\":1781:1798  internalFuction() */\n      jump\t// in\n    tag_114:\n        /* \"SimpleStorage.sol\":1774:1798  return internalFuction() */\n      swap1\n      pop\n        /* \"SimpleStorage.sol\":1696:1806  function callInternalFunction() public pure returns (string memory){... */\n      swap1\n      jump\t// out\n        /* \"SimpleStorage.sol\":2782:2836  mapping(string => uint256) public nameToFavoriteNumber */\n    tag_55:\n      0x04\n      dup2\n      dup1\n      mload\n      0x20\n      dup2\n      add\n      dup3\n      add\n      dup1\n      mload\n      dup5\n      dup3\n      mstore\n      0x20\n      dup4\n      add\n      0x20\n      dup6\n      add\n      keccak256\n      dup2\n      dup4\n      mstore\n      dup1\n      swap6\n      pop\n      pop\n      pop\n      pop\n      pop\n      pop\n      0x00\n      swap2\n      pop\n      swap1\n      pop\n      sload\n      dup2\n      jump\t// out\n        /* \"SimpleStorage.sol\":2491:2572  function activateContract() public{... */\n    tag_58:\n        /* \"SimpleStorage.sol\":2544:2564  ContractState.Active */\n      0x00\n        /* \"SimpleStorage.sol\":2536:2541  state */\n      0x03\n      0x00\n        /* \"SimpleStorage.sol\":2536:2564  state = ContractState.Active */\n      0x0100\n      exp\n      dup2\n      sload\n      dup2\n      0xff\n      mul\n      not\n      and\n      swap1\n      dup4\n      0x01\n      dup2\n      gt\n      iszero\n      tag_117\n      jumpi\n      tag_118\n      tag_104\n      jump\t// in\n    tag_118:\n    tag_117:\n      mul\n      or\n      swap1\n      sstore\n      pop\n        /* \"SimpleStorage.sol\":2491:2572  function activateContract() public{... */\n      jump\t// out\n        /* \"SimpleStorage.sol\":462:484  Person[] public people */\n    tag_61:\n      0x02\n      dup2\n      dup2\n      sload\n      dup2\n      lt\n      tag_119\n      jumpi\n      0x00\n      dup1\n      revert\n    tag_119:\n      swap1\n      0x00\n      mstore\n      keccak256(0x00, 0x20)\n      swap1\n      0x02\n      mul\n      add\n      0x00\n      swap2\n      pop\n      swap1\n      pop\n      dup1\n      0x00\n      add\n      dup1\n      sload\n      tag_121\n      swap1\n      tag_122\n      jump\t// in\n    tag_121:\n      dup1\n      0x1f\n      add\n      0x20\n      dup1\n      swap2\n      div\n      mul\n      0x20\n      add\n      mload(0x40)\n      swap1\n      dup2\n      add\n      0x40\n      mstore\n      dup1\n      swap3\n      swap2\n      swap1\n      dup2\n      dup2\n      mstore\n      0x20\n      add\n      dup3\n      dup1\n      sload\n      tag_123\n      swap1\n      tag_122\n      jump\t// in\n    tag_123:\n      dup1\n      iszero\n      tag_124\n      jumpi\n      dup1\n      0x1f\n      lt\n      tag_125\n      jumpi\n      0x0100\n      dup1\n      dup4\n      sload\n      div\n      mul\n      dup4\n      mstore\n      swap2\n      0x20\n      add\n      swap2\n      jump(tag_124)\n    tag_125:\n      dup3\n      add\n      swap2\n      swap1\n      0x00\n      mstore\n      keccak256(0x00, 0x20)\n      swap1\n    tag_126:\n      dup2\n      sload\n      dup2\n      mstore\n      swap1\n      0x01\n      add\n      swap1\n      0x20\n      add\n      dup1\n      dup4\n      gt\n      tag_126\n      jumpi\n      dup3\n      swap1\n      sub\n      0x1f\n      and\n      dup3\n      add\n      swap2\n    tag_124:\n      pop\n      pop\n      pop\n      pop\n      pop\n      swap1\n      dup1\n      0x01\n      add\n      sload\n      swap1\n      pop\n      dup3\n      jump\t// out\n        /* \"SimpleStorage.sol\":1082:1180  function getFavoriteNumber() public view returns (uint256) {... */\n    tag_65:\n        /* \"SimpleStorage.sol\":1132:1139  uint256 */\n      0x00\n        /* \"SimpleStorage.sol\":1158:1172  favoriteNumber */\n      dup1\n      sload\n        /* \"SimpleStorage.sol\":1151:1172  return favoriteNumber */\n      swap1\n      pop\n        /* \"SimpleStorage.sol\":1082:1180  function getFavoriteNumber() public view returns (uint256) {... */\n      swap1\n      jump\t// out\n        /* \"SimpleStorage.sol\":2196:2294  function addFavoriteNumber(uint256 _number) public{... */\n    tag_69:\n        /* \"SimpleStorage.sol\":2257:2272  favoriteNumbers */\n      0x01\n        /* \"SimpleStorage.sol\":2278:2285  _number */\n      dup2\n        /* \"SimpleStorage.sol\":2257:2286  favoriteNumbers.push(_number) */\n      swap1\n      dup1\n      0x01\n      dup2\n      sload\n      add\n      dup1\n      dup3\n      sstore\n      dup1\n      swap2\n      pop\n      pop\n      0x01\n      swap1\n      sub\n      swap1\n      0x00\n      mstore\n      keccak256(0x00, 0x20)\n      add\n      0x00\n      swap1\n      swap2\n      swap1\n      swap2\n      swap1\n      swap2\n      pop\n      sstore\n        /* \"SimpleStorage.sol\":2196:2294  function addFavoriteNumber(uint256 _number) public{... */\n      pop\n      jump\t// out\n        /* \"SimpleStorage.sol\":3417:3691  function concatenateString(string calldata _inputString) public pure returns (string memory) {... */\n    tag_73:\n        /* \"SimpleStorage.sol\":3495:3508  string memory */\n      0x60\n        /* \"SimpleStorage.sol\":3582:3605  string memory newString */\n      0x00\n        /* \"SimpleStorage.sol\":3632:3644  _inputString */\n      dup4\n      dup4\n        /* \"SimpleStorage.sol\":3615:3655  abi.encodePacked(_inputString, \" Woow!\") */\n      add(0x20, mload(0x40))\n      tag_131\n      swap3\n      swap2\n      swap1\n      tag_132\n      jump\t// in\n    tag_131:\n      mload(0x40)\n      0x20\n      dup2\n      dup4\n      sub\n      sub\n      dup2\n      mstore\n      swap1\n      0x40\n      mstore\n        /* \"SimpleStorage.sol\":3582:3656  string memory newString = string(abi.encodePacked(_inputString, \" Woow!\")) */\n      swap1\n      pop\n        /* \"SimpleStorage.sol\":3674:3683  newString */\n      dup1\n        /* \"SimpleStorage.sol\":3667:3683  return newString */\n      swap2\n      pop\n      pop\n        /* \"SimpleStorage.sol\":3417:3691  function concatenateString(string calldata _inputString) public pure returns (string memory) {... */\n      swap3\n      swap2\n      pop\n      pop\n      jump\t// out\n        /* \"SimpleStorage.sol\":853:1074  function storeNumber(uint256 _number) public {... */\n    tag_77:\n        /* \"SimpleStorage.sol\":926:933  _number */\n      dup1\n        /* \"SimpleStorage.sol\":909:923  favoriteNumber */\n      0x00\n        /* \"SimpleStorage.sol\":909:933  favoriteNumber = _number */\n      dup2\n      swap1\n      sstore\n      pop\n        /* \"SimpleStorage.sol\":1025:1066  NumberUpdated(favoriteNumber, msg.sender) */\n      0xe5f28171f43fc54876f02589c23cc70d19e06f868cc3811c456e8c61c296a27e\n        /* \"SimpleStorage.sol\":1039:1053  favoriteNumber */\n      sload(0x00)\n        /* \"SimpleStorage.sol\":1055:1065  msg.sender */\n      caller\n        /* \"SimpleStorage.sol\":1025:1066  NumberUpdated(favoriteNumber, msg.sender) */\n      mload(0x40)\n      tag_134\n      swap3\n      swap2\n      swap1\n      tag_135\n      jump\t// in\n    tag_134:\n      mload(0x40)\n      dup1\n      swap2\n      sub\n      swap1\n      log1\n        /* \"SimpleStorage.sol\":853:1074  function storeNumber(uint256 _number) public {... */\n      pop\n      jump\t// out\n        /* \"SimpleStorage.sol\":2580:2665  function deactivateContract() public{... */\n    tag_79:\n        /* \"SimpleStorage.sol\":2635:2657  ContractState.Inactive */\n      0x01\n        /* \"SimpleStorage.sol\":2627:2632  state */\n      0x03\n      0x00\n        /* \"SimpleStorage.sol\":2627:2657  state = ContractState.Inactive */\n      0x0100\n      exp\n      dup2\n      sload\n      dup2\n      0xff\n      mul\n      not\n      and\n      swap1\n      dup4\n      0x01\n      dup2\n      gt\n      iszero\n      tag_137\n      jumpi\n      tag_138\n      tag_104\n      jump\t// in\n    tag_138:\n    tag_137:\n      mul\n      or\n      swap1\n      sstore\n      pop\n        /* \"SimpleStorage.sol\":2580:2665  function deactivateContract() public{... */\n      jump\t// out\n        /* \"SimpleStorage.sol\":764:790  ContractState public state */\n    tag_81:\n      0x03\n      0x00\n      swap1\n      sload\n      swap1\n      0x0100\n      exp\n      swap1\n      div\n      0xff\n      and\n      dup2\n      jump\t// out\n        /* \"SimpleStorage.sol\":1192:1306  function isGreaterThan(uint256 _value) public view returns (bool){... */\n    tag_86:\n        /* \"SimpleStorage.sol\":1252:1256  bool */\n      0x00\n        /* \"SimpleStorage.sol\":1292:1298  _value */\n      dup2\n        /* \"SimpleStorage.sol\":1275:1289  favoriteNumber */\n      sload(0x00)\n        /* \"SimpleStorage.sol\":1275:1298  favoriteNumber > _value */\n      gt\n        /* \"SimpleStorage.sol\":1268:1298  return favoriteNumber > _value */\n      swap1\n      pop\n        /* \"SimpleStorage.sol\":1192:1306  function isGreaterThan(uint256 _value) public view returns (bool){... */\n      swap2\n      swap1\n      pop\n      jump\t// out\n        /* \"SimpleStorage.sol\":2021:2137  function testExternalFunction() public view returns (string memory){... */\n    tag_89:\n        /* \"SimpleStorage.sol\":2074:2087  string memory */\n      0x60\n        /* \"SimpleStorage.sol\":2106:2110  this */\n      address\n        /* \"SimpleStorage.sol\":2106:2127  this.externalFunction */\n      0xffffffffffffffffffffffffffffffffffffffff\n      and\n      0x3a32b549\n        /* \"SimpleStorage.sol\":2106:2129  this.externalFunction() */\n      mload(0x40)\n      dup2\n      0xffffffff\n      and\n      0xe0\n      shl\n      dup2\n      mstore\n      0x04\n      add\n      0x00\n      mload(0x40)\n      dup1\n      dup4\n      sub\n      dup2\n      dup7\n      gas\n      staticcall\n      iszero\n      dup1\n      iszero\n      tag_142\n      jumpi\n      returndatasize\n      0x00\n      dup1\n      returndatacopy\n      revert(0x00, returndatasize)\n    tag_142:\n      pop\n      pop\n      pop\n      pop\n      mload(0x40)\n      returndatasize\n      0x00\n      dup3\n      returndatacopy\n      returndatasize\n      not(0x1f)\n      0x1f\n      dup3\n      add\n      and\n      dup3\n      add\n      dup1\n      0x40\n      mstore\n      pop\n      dup2\n      add\n      swap1\n      tag_143\n      swap2\n      swap1\n      tag_144\n      jump\t// in\n    tag_143:\n        /* \"SimpleStorage.sol\":2099:2129  return this.externalFunction() */\n      swap1\n      pop\n        /* \"SimpleStorage.sol\":2021:2137  function testExternalFunction() public view returns (string memory){... */\n      swap1\n      jump\t// out\n        /* \"SimpleStorage.sol\":1533:1639  function internalFuction() internal pure returns (string memory){... */\n    tag_115:\n        /* \"SimpleStorage.sol\":1583:1596  string memory */\n      0x60\n        /* \"SimpleStorage.sol\":1608:1631  return \"You're awesome\" */\n      mload(0x40)\n      dup1\n      0x40\n      add\n      0x40\n      mstore\n      dup1\n      0x0e\n      dup2\n      mstore\n      0x20\n      add\n      0x596f7527726520617765736f6d65000000000000000000000000000000000000\n      dup2\n      mstore\n      pop\n      swap1\n      pop\n        /* \"SimpleStorage.sol\":1533:1639  function internalFuction() internal pure returns (string memory){... */\n      swap1\n      jump\t// out\n        /* \"#utility.yul\":7:84   */\n    tag_146:\n        /* \"#utility.yul\":44:51   */\n      0x00\n        /* \"#utility.yul\":73:78   */\n      dup2\n        /* \"#utility.yul\":62:78   */\n      swap1\n      pop\n        /* \"#utility.yul\":7:84   */\n      swap2\n      swap1\n      pop\n      jump\t// out\n        /* \"#utility.yul\":90:208   */\n    tag_147:\n        /* \"#utility.yul\":177:201   */\n      tag_191\n        /* \"#utility.yul\":195:200   */\n      dup2\n        /* \"#utility.yul\":177:201   */\n      tag_146\n      jump\t// in\n    tag_191:\n        /* \"#utility.yul\":172:175   */\n      dup3\n        /* \"#utility.yul\":165:202   */\n      mstore\n        /* \"#utility.yul\":90:208   */\n      pop\n      pop\n      jump\t// out\n        /* \"#utility.yul\":214:436   */\n    tag_27:\n        /* \"#utility.yul\":307:311   */\n      0x00\n        /* \"#utility.yul\":345:347   */\n      0x20\n        /* \"#utility.yul\":334:343   */\n      dup3\n        /* \"#utility.yul\":330:348   */\n      add\n        /* \"#utility.yul\":322:348   */\n      swap1\n      pop\n        /* \"#utility.yul\":358:429   */\n      tag_193\n        /* \"#utility.yul\":426:427   */\n      0x00\n        /* \"#utility.yul\":415:424   */\n      dup4\n        /* \"#utility.yul\":411:428   */\n      add\n        /* \"#utility.yul\":402:408   */\n      dup5\n        /* \"#utility.yul\":358:429   */\n      tag_147\n      jump\t// in\n    tag_193:\n        /* \"#utility.yul\":214:436   */\n      swap3\n      swap2\n      pop\n      pop\n      jump\t// out\n        /* \"#utility.yul\":442:517   */\n    tag_148:\n        /* \"#utility.yul\":475:481   */\n      0x00\n        /* \"#utility.yul\":508:510   */\n      0x40\n        /* \"#utility.yul\":502:511   */\n      mload\n        /* \"#utility.yul\":492:511   */\n      swap1\n      pop\n        /* \"#utility.yul\":442:517   */\n      swap1\n      jump\t// out\n        /* \"#utility.yul\":523:640   */\n    tag_149:\n        /* \"#utility.yul\":632:633   */\n      0x00\n        /* \"#utility.yul\":629:630   */\n      dup1\n        /* \"#utility.yul\":622:634   */\n      revert\n        /* \"#utility.yul\":646:763   */\n    tag_150:\n        /* \"#utility.yul\":755:756   */\n      0x00\n        /* \"#utility.yul\":752:753   */\n      dup1\n        /* \"#utility.yul\":745:757   */\n      revert\n        /* \"#utility.yul\":769:891   */\n    tag_151:\n        /* \"#utility.yul\":842:866   */\n      tag_198\n        /* \"#utility.yul\":860:865   */\n      dup2\n        /* \"#utility.yul\":842:866   */\n      tag_146\n      jump\t// in\n    tag_198:\n        /* \"#utility.yul\":835:840   */\n      dup2\n        /* \"#utility.yul\":832:867   */\n      eq\n        /* \"#utility.yul\":822:885   */\n      tag_199\n      jumpi\n        /* \"#utility.yul\":881:882   */\n      0x00\n        /* \"#utility.yul\":878:879   */\n      dup1\n        /* \"#utility.yul\":871:883   */\n      revert\n        /* \"#utility.yul\":822:885   */\n    tag_199:\n        /* \"#utility.yul\":769:891   */\n      pop\n      jump\t// out\n        /* \"#utility.yul\":897:1036   */\n    tag_152:\n        /* \"#utility.yul\":943:948   */\n      0x00\n        /* \"#utility.yul\":981:987   */\n      dup2\n        /* \"#utility.yul\":968:988   */\n      calldataload\n        /* \"#utility.yul\":959:988   */\n      swap1\n      pop\n        /* \"#utility.yul\":997:1030   */\n      tag_201\n        /* \"#utility.yul\":1024:1029   */\n      dup2\n        /* \"#utility.yul\":997:1030   */\n      tag_151\n      jump\t// in\n    tag_201:\n        /* \"#utility.yul\":897:1036   */\n      swap3\n      swap2\n      pop\n      pop\n      jump\t// out\n        /* \"#utility.yul\":1042:1371   */\n    tag_30:\n        /* \"#utility.yul\":1101:1107   */\n      0x00\n        /* \"#utility.yul\":1150:1152   */\n      0x20\n        /* \"#utility.yul\":1138:1147   */\n      dup3\n        /* \"#utility.yul\":1129:1136   */\n      dup5\n        /* \"#utility.yul\":1125:1148   */\n      sub\n        /* \"#utility.yul\":1121:1153   */\n      slt\n        /* \"#utility.yul\":1118:1237   */\n      iszero\n      tag_203\n      jumpi\n        /* \"#utility.yul\":1156:1235   */\n      tag_204\n      tag_149\n      jump\t// in\n    tag_204:\n        /* \"#utility.yul\":1118:1237   */\n    tag_203:\n        /* \"#utility.yul\":1276:1277   */\n      0x00\n        /* \"#utility.yul\":1301:1354   */\n      tag_205\n        /* \"#utility.yul\":1346:1353   */\n      dup5\n        /* \"#utility.yul\":1337:1343   */\n      dup3\n        /* \"#utility.yul\":1326:1335   */\n      dup6\n        /* \"#utility.yul\":1322:1344   */\n      add\n        /* \"#utility.yul\":1301:1354   */\n      tag_152\n      jump\t// in\n    tag_205:\n        /* \"#utility.yul\":1291:1354   */\n      swap2\n      pop\n        /* \"#utility.yul\":1247:1364   */\n      pop\n        /* \"#utility.yul\":1042:1371   */\n      swap3\n      swap2\n      pop\n      pop\n      jump\t// out\n        /* \"#utility.yul\":1377:1467   */\n    tag_153:\n        /* \"#utility.yul\":1411:1418   */\n      0x00\n        /* \"#utility.yul\":1454:1459   */\n      dup2\n        /* \"#utility.yul\":1447:1460   */\n      iszero\n        /* \"#utility.yul\":1440:1461   */\n      iszero\n        /* \"#utility.yul\":1429:1461   */\n      swap1\n      pop\n        /* \"#utility.yul\":1377:1467   */\n      swap2\n      swap1\n      pop\n      jump\t// out\n        /* \"#utility.yul\":1473:1582   */\n    tag_154:\n        /* \"#utility.yul\":1554:1575   */\n      tag_208\n        /* \"#utility.yul\":1569:1574   */\n      dup2\n        /* \"#utility.yul\":1554:1575   */\n      tag_153\n      jump\t// in\n    tag_208:\n        /* \"#utility.yul\":1549:1552   */\n      dup3\n        /* \"#utility.yul\":1542:1576   */\n      mstore\n        /* \"#utility.yul\":1473:1582   */\n      pop\n      pop\n      jump\t// out\n        /* \"#utility.yul\":1588:1798   */\n    tag_36:\n        /* \"#utility.yul\":1675:1679   */\n      0x00\n        /* \"#utility.yul\":1713:1715   */\n      0x20\n        /* \"#utility.yul\":1702:1711   */\n      dup3\n        /* \"#utility.yul\":1698:1716   */\n      add\n        /* \"#utility.yul\":1690:1716   */\n      swap1\n      pop\n        /* \"#utility.yul\":1726:1791   */\n      tag_210\n        /* \"#utility.yul\":1788:1789   */\n      0x00\n        /* \"#utility.yul\":1777:1786   */\n      dup4\n        /* \"#utility.yul\":1773:1790   */\n      add\n        /* \"#utility.yul\":1764:1770   */\n      dup5\n        /* \"#utility.yul\":1726:1791   */\n      tag_154\n      jump\t// in\n    tag_210:\n        /* \"#utility.yul\":1588:1798   */\n      swap3\n      swap2\n      pop\n      pop\n      jump\t// out\n        /* \"#utility.yul\":1804:1903   */\n    tag_155:\n        /* \"#utility.yul\":1856:1862   */\n      0x00\n        /* \"#utility.yul\":1890:1895   */\n      dup2\n        /* \"#utility.yul\":1884:1896   */\n      mload\n        /* \"#utility.yul\":1874:1896   */\n      swap1\n      pop\n        /* \"#utility.yul\":1804:1903   */\n      swap2\n      swap1\n      pop\n      jump\t// out\n        /* \"#utility.yul\":1909:2078   */\n    tag_156:\n        /* \"#utility.yul\":1993:2004   */\n      0x00\n        /* \"#utility.yul\":2027:2033   */\n      dup3\n        /* \"#utility.yul\":2022:2025   */\n      dup3\n        /* \"#utility.yul\":2015:2034   */\n      mstore\n        /* \"#utility.yul\":2067:2071   */\n      0x20\n        /* \"#utility.yul\":2062:2065   */\n      dup3\n        /* \"#utility.yul\":2058:2072   */\n      add\n        /* \"#utility.yul\":2043:2072   */\n      swap1\n      pop\n        /* \"#utility.yul\":1909:2078   */\n      swap3\n      swap2\n      pop\n      pop\n      jump\t// out\n        /* \"#utility.yul\":2084:2223   */\n    tag_157:\n        /* \"#utility.yul\":2173:2179   */\n      dup3\n        /* \"#utility.yul\":2168:2171   */\n      dup2\n        /* \"#utility.yul\":2163:2166   */\n      dup4\n        /* \"#utility.yul\":2157:2180   */\n      mcopy\n        /* \"#utility.yul\":2214:2215   */\n      0x00\n        /* \"#utility.yul\":2205:2211   */\n      dup4\n        /* \"#utility.yul\":2200:2203   */\n      dup4\n        /* \"#utility.yul\":2196:2212   */\n      add\n        /* \"#utility.yul\":2189:2216   */\n      mstore\n        /* \"#utility.yul\":2084:2223   */\n      pop\n      pop\n      pop\n      jump\t// out\n        /* \"#utility.yul\":2229:2331   */\n    tag_158:\n        /* \"#utility.yul\":2270:2276   */\n      0x00\n        /* \"#utility.yul\":2321:2323   */\n      0x1f\n        /* \"#utility.yul\":2317:2324   */\n      not\n        /* \"#utility.yul\":2312:2314   */\n      0x1f\n        /* \"#utility.yul\":2305:2310   */\n      dup4\n        /* \"#utility.yul\":2301:2315   */\n      add\n        /* \"#utility.yul\":2297:2325   */\n      and\n        /* \"#utility.yul\":2287:2325   */\n      swap1\n      pop\n        /* \"#utility.yul\":2229:2331   */\n      swap2\n      swap1\n      pop\n      jump\t// out\n        /* \"#utility.yul\":2337:2714   */\n    tag_159:\n        /* \"#utility.yul\":2425:2428   */\n      0x00\n        /* \"#utility.yul\":2453:2492   */\n      tag_216\n        /* \"#utility.yul\":2486:2491   */\n      dup3\n        /* \"#utility.yul\":2453:2492   */\n      tag_155\n      jump\t// in\n    tag_216:\n        /* \"#utility.yul\":2508:2579   */\n      tag_217\n        /* \"#utility.yul\":2572:2578   */\n      dup2\n        /* \"#utility.yul\":2567:2570   */\n      dup6\n        /* \"#utility.yul\":2508:2579   */\n      tag_156\n      jump\t// in\n    tag_217:\n        /* \"#utility.yul\":2501:2579   */\n      swap4\n      pop\n        /* \"#utility.yul\":2588:2653   */\n      tag_218\n        /* \"#utility.yul\":2646:2652   */\n      dup2\n        /* \"#utility.yul\":2641:2644   */\n      dup6\n        /* \"#utility.yul\":2634:2638   */\n      0x20\n        /* \"#utility.yul\":2627:2632   */\n      dup7\n        /* \"#utility.yul\":2623:2639   */\n      add\n        /* \"#utility.yul\":2588:2653   */\n      tag_157\n      jump\t// in\n    tag_218:\n        /* \"#utility.yul\":2678:2707   */\n      tag_219\n        /* \"#utility.yul\":2700:2706   */\n      dup2\n        /* \"#utility.yul\":2678:2707   */\n      tag_158\n      jump\t// in\n    tag_219:\n        /* \"#utility.yul\":2673:2676   */\n      dup5\n        /* \"#utility.yul\":2669:2708   */\n      add\n        /* \"#utility.yul\":2662:2708   */\n      swap2\n      pop\n        /* \"#utility.yul\":2429:2714   */\n      pop\n        /* \"#utility.yul\":2337:2714   */\n      swap3\n      swap2\n      pop\n      pop\n      jump\t// out\n        /* \"#utility.yul\":2720:3033   */\n    tag_44:\n        /* \"#utility.yul\":2833:2837   */\n      0x00\n        /* \"#utility.yul\":2871:2873   */\n      0x20\n        /* \"#utility.yul\":2860:2869   */\n      dup3\n        /* \"#utility.yul\":2856:2874   */\n      add\n        /* \"#utility.yul\":2848:2874   */\n      swap1\n      pop\n        /* \"#utility.yul\":2920:2929   */\n      dup2\n        /* \"#utility.yul\":2914:2918   */\n      dup2\n        /* \"#utility.yul\":2910:2930   */\n      sub\n        /* \"#utility.yul\":2906:2907   */\n      0x00\n        /* \"#utility.yul\":2895:2904   */\n      dup4\n        /* \"#utility.yul\":2891:2908   */\n      add\n        /* \"#utility.yul\":2884:2931   */\n      mstore\n        /* \"#utility.yul\":2948:3026   */\n      tag_221\n        /* \"#utility.yul\":3021:3025   */\n      dup2\n        /* \"#utility.yul\":3012:3018   */\n      dup5\n        /* \"#utility.yul\":2948:3026   */\n      tag_159\n      jump\t// in\n    tag_221:\n        /* \"#utility.yul\":2940:3026   */\n      swap1\n      pop\n        /* \"#utility.yul\":2720:3033   */\n      swap3\n      swap2\n      pop\n      pop\n      jump\t// out\n        /* \"#utility.yul\":3039:3156   */\n    tag_160:\n        /* \"#utility.yul\":3148:3149   */\n      0x00\n        /* \"#utility.yul\":3145:3146   */\n      dup1\n        /* \"#utility.yul\":3138:3150   */\n      revert\n        /* \"#utility.yul\":3162:3279   */\n    tag_161:\n        /* \"#utility.yul\":3271:3272   */\n      0x00\n        /* \"#utility.yul\":3268:3269   */\n      dup1\n        /* \"#utility.yul\":3261:3273   */\n      revert\n        /* \"#utility.yul\":3285:3465   */\n    tag_162:\n        /* \"#utility.yul\":3333:3410   */\n      0x4e487b7100000000000000000000000000000000000000000000000000000000\n        /* \"#utility.yul\":3330:3331   */\n      0x00\n        /* \"#utility.yul\":3323:3411   */\n      mstore\n        /* \"#utility.yul\":3430:3434   */\n      0x41\n        /* \"#utility.yul\":3427:3428   */\n      0x04\n        /* \"#utility.yul\":3420:3435   */\n      mstore\n        /* \"#utility.yul\":3454:3458   */\n      0x24\n        /* \"#utility.yul\":3451:3452   */\n      0x00\n        /* \"#utility.yul\":3444:3459   */\n      revert\n        /* \"#utility.yul\":3471:3752   */\n    tag_163:\n        /* \"#utility.yul\":3554:3581   */\n      tag_226\n        /* \"#utility.yul\":3576:3580   */\n      dup3\n        /* \"#utility.yul\":3554:3581   */\n      tag_158\n      jump\t// in\n    tag_226:\n        /* \"#utility.yul\":3546:3552   */\n      dup2\n        /* \"#utility.yul\":3542:3582   */\n      add\n        /* \"#utility.yul\":3684:3690   */\n      dup2\n        /* \"#utility.yul\":3672:3682   */\n      dup2\n        /* \"#utility.yul\":3669:3691   */\n      lt\n        /* \"#utility.yul\":3648:3666   */\n      0xffffffffffffffff\n        /* \"#utility.yul\":3636:3646   */\n      dup3\n        /* \"#utility.yul\":3633:3667   */\n      gt\n        /* \"#utility.yul\":3630:3692   */\n      or\n        /* \"#utility.yul\":3627:3715   */\n      iszero\n      tag_227\n      jumpi\n        /* \"#utility.yul\":3695:3713   */\n      tag_228\n      tag_162\n      jump\t// in\n    tag_228:\n        /* \"#utility.yul\":3627:3715   */\n    tag_227:\n        /* \"#utility.yul\":3735:3745   */\n      dup1\n        /* \"#utility.yul\":3731:3733   */\n      0x40\n        /* \"#utility.yul\":3724:3746   */\n      mstore\n        /* \"#utility.yul\":3514:3752   */\n      pop\n        /* \"#utility.yul\":3471:3752   */\n      pop\n      pop\n      jump\t// out\n        /* \"#utility.yul\":3758:3887   */\n    tag_164:\n        /* \"#utility.yul\":3792:3798   */\n      0x00\n        /* \"#utility.yul\":3819:3839   */\n      tag_230\n      tag_148\n      jump\t// in\n    tag_230:\n        /* \"#utility.yul\":3809:3839   */\n      swap1\n      pop\n        /* \"#utility.yul\":3848:3881   */\n      tag_231\n        /* \"#utility.yul\":3876:3880   */\n      dup3\n        /* \"#utility.yul\":3868:3874   */\n      dup3\n        /* \"#utility.yul\":3848:3881   */\n      tag_163\n      jump\t// in\n    tag_231:\n        /* \"#utility.yul\":3758:3887   */\n      swap2\n      swap1\n      pop\n      jump\t// out\n        /* \"#utility.yul\":3893:4201   */\n    tag_165:\n        /* \"#utility.yul\":3955:3959   */\n      0x00\n        /* \"#utility.yul\":4045:4063   */\n      0xffffffffffffffff\n        /* \"#utility.yul\":4037:4043   */\n      dup3\n        /* \"#utility.yul\":4034:4064   */\n      gt\n        /* \"#utility.yul\":4031:4087   */\n      iszero\n      tag_233\n      jumpi\n        /* \"#utility.yul\":4067:4085   */\n      tag_234\n      tag_162\n      jump\t// in\n    tag_234:\n        /* \"#utility.yul\":4031:4087   */\n    tag_233:\n        /* \"#utility.yul\":4105:4134   */\n      tag_235\n        /* \"#utility.yul\":4127:4133   */\n      dup3\n        /* \"#utility.yul\":4105:4134   */\n      tag_158\n      jump\t// in\n    tag_235:\n        /* \"#utility.yul\":4097:4134   */\n      swap1\n      pop\n        /* \"#utility.yul\":4189:4193   */\n      0x20\n        /* \"#utility.yul\":4183:4187   */\n      dup2\n        /* \"#utility.yul\":4179:4194   */\n      add\n        /* \"#utility.yul\":4171:4194   */\n      swap1\n      pop\n        /* \"#utility.yul\":3893:4201   */\n      swap2\n      swap1\n      pop\n      jump\t// out\n        /* \"#utility.yul\":4207:4355   */\n    tag_166:\n        /* \"#utility.yul\":4305:4311   */\n      dup3\n        /* \"#utility.yul\":4300:4303   */\n      dup2\n        /* \"#utility.yul\":4295:4298   */\n      dup4\n        /* \"#utility.yul\":4282:4312   */\n      calldatacopy\n        /* \"#utility.yul\":4346:4347   */\n      0x00\n        /* \"#utility.yul\":4337:4343   */\n      dup4\n        /* \"#utility.yul\":4332:4335   */\n      dup4\n        /* \"#utility.yul\":4328:4344   */\n      add\n        /* \"#utility.yul\":4321:4348   */\n      mstore\n        /* \"#utility.yul\":4207:4355   */\n      pop\n      pop\n      pop\n      jump\t// out\n        /* \"#utility.yul\":4361:4786   */\n    tag_167:\n        /* \"#utility.yul\":4439:4444   */\n      0x00\n        /* \"#utility.yul\":4464:4530   */\n      tag_238\n        /* \"#utility.yul\":4480:4529   */\n      tag_239\n        /* \"#utility.yul\":4522:4528   */\n      dup5\n        /* \"#utility.yul\":4480:4529   */\n      tag_165\n      jump\t// in\n    tag_239:\n        /* \"#utility.yul\":4464:4530   */\n      tag_164\n      jump\t// in\n    tag_238:\n        /* \"#utility.yul\":4455:4530   */\n      swap1\n      pop\n        /* \"#utility.yul\":4553:4559   */\n      dup3\n        /* \"#utility.yul\":4546:4551   */\n      dup2\n        /* \"#utility.yul\":4539:4560   */\n      mstore\n        /* \"#utility.yul\":4591:4595   */\n      0x20\n        /* \"#utility.yul\":4584:4589   */\n      dup2\n        /* \"#utility.yul\":4580:4596   */\n      add\n        /* \"#utility.yul\":4629:4632   */\n      dup5\n        /* \"#utility.yul\":4620:4626   */\n      dup5\n        /* \"#utility.yul\":4615:4618   */\n      dup5\n        /* \"#utility.yul\":4611:4627   */\n      add\n        /* \"#utility.yul\":4608:4633   */\n      gt\n        /* \"#utility.yul\":4605:4717   */\n      iszero\n      tag_240\n      jumpi\n        /* \"#utility.yul\":4636:4715   */\n      tag_241\n      tag_161\n      jump\t// in\n    tag_241:\n        /* \"#utility.yul\":4605:4717   */\n    tag_240:\n        /* \"#utility.yul\":4726:4780   */\n      tag_242\n        /* \"#utility.yul\":4773:4779   */\n      dup5\n        /* \"#utility.yul\":4768:4771   */\n      dup3\n        /* \"#utility.yul\":4763:4766   */\n      dup6\n        /* \"#utility.yul\":4726:4780   */\n      tag_166\n      jump\t// in\n    tag_242:\n        /* \"#utility.yul\":4445:4786   */\n      pop\n        /* \"#utility.yul\":4361:4786   */\n      swap4\n      swap3\n      pop\n      pop\n      pop\n      jump\t// out\n        /* \"#utility.yul\":4806:5146   */\n    tag_168:\n        /* \"#utility.yul\":4862:4867   */\n      0x00\n        /* \"#utility.yul\":4911:4914   */\n      dup3\n        /* \"#utility.yul\":4904:4908   */\n      0x1f\n        /* \"#utility.yul\":4896:4902   */\n      dup4\n        /* \"#utility.yul\":4892:4909   */\n      add\n        /* \"#utility.yul\":4888:4915   */\n      slt\n        /* \"#utility.yul\":4878:5000   */\n      tag_244\n      jumpi\n        /* \"#utility.yul\":4919:4998   */\n      tag_245\n      tag_160\n      jump\t// in\n    tag_245:\n        /* \"#utility.yul\":4878:5000   */\n    tag_244:\n        /* \"#utility.yul\":5036:5042   */\n      dup2\n        /* \"#utility.yul\":5023:5043   */\n      calldataload\n        /* \"#utility.yul\":5061:5140   */\n      tag_246\n        /* \"#utility.yul\":5136:5139   */\n      dup5\n        /* \"#utility.yul\":5128:5134   */\n      dup3\n        /* \"#utility.yul\":5121:5125   */\n      0x20\n        /* \"#utility.yul\":5113:5119   */\n      dup7\n        /* \"#utility.yul\":5109:5126   */\n      add\n        /* \"#utility.yul\":5061:5140   */\n      tag_167\n      jump\t// in\n    tag_246:\n        /* \"#utility.yul\":5052:5140   */\n      swap2\n      pop\n        /* \"#utility.yul\":4868:5146   */\n      pop\n        /* \"#utility.yul\":4806:5146   */\n      swap3\n      swap2\n      pop\n      pop\n      jump\t// out\n        /* \"#utility.yul\":5152:5806   */\n    tag_47:\n        /* \"#utility.yul\":5230:5236   */\n      0x00\n        /* \"#utility.yul\":5238:5244   */\n      dup1\n        /* \"#utility.yul\":5287:5289   */\n      0x40\n        /* \"#utility.yul\":5275:5284   */\n      dup4\n        /* \"#utility.yul\":5266:5273   */\n      dup6\n        /* \"#utility.yul\":5262:5285   */\n      sub\n        /* \"#utility.yul\":5258:5290   */\n      slt\n        /* \"#utility.yul\":5255:5374   */\n      iszero\n      tag_248\n      jumpi\n        /* \"#utility.yul\":5293:5372   */\n      tag_249\n      tag_149\n      jump\t// in\n    tag_249:\n        /* \"#utility.yul\":5255:5374   */\n    tag_248:\n        /* \"#utility.yul\":5441:5442   */\n      0x00\n        /* \"#utility.yul\":5430:5439   */\n      dup4\n        /* \"#utility.yul\":5426:5443   */\n      add\n        /* \"#utility.yul\":5413:5444   */\n      calldataload\n        /* \"#utility.yul\":5471:5489   */\n      0xffffffffffffffff\n        /* \"#utility.yul\":5463:5469   */\n      dup2\n        /* \"#utility.yul\":5460:5490   */\n      gt\n        /* \"#utility.yul\":5457:5574   */\n      iszero\n      tag_250\n      jumpi\n        /* \"#utility.yul\":5493:5572   */\n      tag_251\n      tag_150\n      jump\t// in\n    tag_251:\n        /* \"#utility.yul\":5457:5574   */\n    tag_250:\n        /* \"#utility.yul\":5598:5661   */\n      tag_252\n        /* \"#utility.yul\":5653:5660   */\n      dup6\n        /* \"#utility.yul\":5644:5650   */\n      dup3\n        /* \"#utility.yul\":5633:5642   */\n      dup7\n        /* \"#utility.yul\":5629:5651   */\n      add\n        /* \"#utility.yul\":5598:5661   */\n      tag_168\n      jump\t// in\n    tag_252:\n        /* \"#utility.yul\":5588:5661   */\n      swap3\n      pop\n        /* \"#utility.yul\":5384:5671   */\n      pop\n        /* \"#utility.yul\":5710:5712   */\n      0x20\n        /* \"#utility.yul\":5736:5789   */\n      tag_253\n        /* \"#utility.yul\":5781:5788   */\n      dup6\n        /* \"#utility.yul\":5772:5778   */\n      dup3\n        /* \"#utility.yul\":5761:5770   */\n      dup7\n        /* \"#utility.yul\":5757:5779   */\n      add\n        /* \"#utility.yul\":5736:5789   */\n      tag_152\n      jump\t// in\n    tag_253:\n        /* \"#utility.yul\":5726:5789   */\n      swap2\n      pop\n        /* \"#utility.yul\":5681:5799   */\n      pop\n        /* \"#utility.yul\":5152:5806   */\n      swap3\n      pop\n      swap3\n      swap1\n      pop\n      jump\t// out\n        /* \"#utility.yul\":5812:6321   */\n    tag_54:\n        /* \"#utility.yul\":5881:5887   */\n      0x00\n        /* \"#utility.yul\":5930:5932   */\n      0x20\n        /* \"#utility.yul\":5918:5927   */\n      dup3\n        /* \"#utility.yul\":5909:5916   */\n      dup5\n        /* \"#utility.yul\":5905:5928   */\n      sub\n        /* \"#utility.yul\":5901:5933   */\n      slt\n        /* \"#utility.yul\":5898:6017   */\n      iszero\n      tag_255\n      jumpi\n        /* \"#utility.yul\":5936:6015   */\n      tag_256\n      tag_149\n      jump\t// in\n    tag_256:\n        /* \"#utility.yul\":5898:6017   */\n    tag_255:\n        /* \"#utility.yul\":6084:6085   */\n      0x00\n        /* \"#utility.yul\":6073:6082   */\n      dup3\n        /* \"#utility.yul\":6069:6086   */\n      add\n        /* \"#utility.yul\":6056:6087   */\n      calldataload\n        /* \"#utility.yul\":6114:6132   */\n      0xffffffffffffffff\n        /* \"#utility.yul\":6106:6112   */\n      dup2\n        /* \"#utility.yul\":6103:6133   */\n      gt\n        /* \"#utility.yul\":6100:6217   */\n      iszero\n      tag_257\n      jumpi\n        /* \"#utility.yul\":6136:6215   */\n      tag_258\n      tag_150\n      jump\t// in\n    tag_258:\n        /* \"#utility.yul\":6100:6217   */\n    tag_257:\n        /* \"#utility.yul\":6241:6304   */\n      tag_259\n        /* \"#utility.yul\":6296:6303   */\n      dup5\n        /* \"#utility.yul\":6287:6293   */\n      dup3\n        /* \"#utility.yul\":6276:6285   */\n      dup6\n        /* \"#utility.yul\":6272:6294   */\n      add\n        /* \"#utility.yul\":6241:6304   */\n      tag_168\n      jump\t// in\n    tag_259:\n        /* \"#utility.yul\":6231:6304   */\n      swap2\n      pop\n        /* \"#utility.yul\":6027:6314   */\n      pop\n        /* \"#utility.yul\":5812:6321   */\n      swap3\n      swap2\n      pop\n      pop\n      jump\t// out\n        /* \"#utility.yul\":6327:6750   */\n    tag_63:\n        /* \"#utility.yul\":6468:6472   */\n      0x00\n        /* \"#utility.yul\":6506:6508   */\n      0x40\n        /* \"#utility.yul\":6495:6504   */\n      dup3\n        /* \"#utility.yul\":6491:6509   */\n      add\n        /* \"#utility.yul\":6483:6509   */\n      swap1\n      pop\n        /* \"#utility.yul\":6555:6564   */\n      dup2\n        /* \"#utility.yul\":6549:6553   */\n      dup2\n        /* \"#utility.yul\":6545:6565   */\n      sub\n        /* \"#utility.yul\":6541:6542   */\n      0x00\n        /* \"#utility.yul\":6530:6539   */\n      dup4\n        /* \"#utility.yul\":6526:6543   */\n      add\n        /* \"#utility.yul\":6519:6566   */\n      mstore\n        /* \"#utility.yul\":6583:6661   */\n      tag_261\n        /* \"#utility.yul\":6656:6660   */\n      dup2\n        /* \"#utility.yul\":6647:6653   */\n      dup6\n        /* \"#utility.yul\":6583:6661   */\n      tag_159\n      jump\t// in\n    tag_261:\n        /* \"#utility.yul\":6575:6661   */\n      swap1\n      pop\n        /* \"#utility.yul\":6671:6743   */\n      tag_262\n        /* \"#utility.yul\":6739:6741   */\n      0x20\n        /* \"#utility.yul\":6728:6737   */\n      dup4\n        /* \"#utility.yul\":6724:6742   */\n      add\n        /* \"#utility.yul\":6715:6721   */\n      dup5\n        /* \"#utility.yul\":6671:6743   */\n      tag_147\n      jump\t// in\n    tag_262:\n        /* \"#utility.yul\":6327:6750   */\n      swap4\n      swap3\n      pop\n      pop\n      pop\n      jump\t// out\n        /* \"#utility.yul\":6756:6873   */\n    tag_169:\n        /* \"#utility.yul\":6865:6866   */\n      0x00\n        /* \"#utility.yul\":6862:6863   */\n      dup1\n        /* \"#utility.yul\":6855:6867   */\n      revert\n        /* \"#utility.yul\":6879:6996   */\n    tag_170:\n        /* \"#utility.yul\":6988:6989   */\n      0x00\n        /* \"#utility.yul\":6985:6986   */\n      dup1\n        /* \"#utility.yul\":6978:6990   */\n      revert\n        /* \"#utility.yul\":7016:7569   */\n    tag_171:\n        /* \"#utility.yul\":7074:7082   */\n      0x00\n        /* \"#utility.yul\":7084:7090   */\n      dup1\n        /* \"#utility.yul\":7134:7137   */\n      dup4\n        /* \"#utility.yul\":7127:7131   */\n      0x1f\n        /* \"#utility.yul\":7119:7125   */\n      dup5\n        /* \"#utility.yul\":7115:7132   */\n      add\n        /* \"#utility.yul\":7111:7138   */\n      slt\n        /* \"#utility.yul\":7101:7223   */\n      tag_266\n      jumpi\n        /* \"#utility.yul\":7142:7221   */\n      tag_267\n      tag_160\n      jump\t// in\n    tag_267:\n        /* \"#utility.yul\":7101:7223   */\n    tag_266:\n        /* \"#utility.yul\":7255:7261   */\n      dup3\n        /* \"#utility.yul\":7242:7262   */\n      calldataload\n        /* \"#utility.yul\":7232:7262   */\n      swap1\n      pop\n        /* \"#utility.yul\":7285:7303   */\n      0xffffffffffffffff\n        /* \"#utility.yul\":7277:7283   */\n      dup2\n        /* \"#utility.yul\":7274:7304   */\n      gt\n        /* \"#utility.yul\":7271:7388   */\n      iszero\n      tag_268\n      jumpi\n        /* \"#utility.yul\":7307:7386   */\n      tag_269\n      tag_169\n      jump\t// in\n    tag_269:\n        /* \"#utility.yul\":7271:7388   */\n    tag_268:\n        /* \"#utility.yul\":7421:7425   */\n      0x20\n        /* \"#utility.yul\":7413:7419   */\n      dup4\n        /* \"#utility.yul\":7409:7426   */\n      add\n        /* \"#utility.yul\":7397:7426   */\n      swap2\n      pop\n        /* \"#utility.yul\":7475:7478   */\n      dup4\n        /* \"#utility.yul\":7467:7471   */\n      0x01\n        /* \"#utility.yul\":7459:7465   */\n      dup3\n        /* \"#utility.yul\":7455:7472   */\n      mul\n        /* \"#utility.yul\":7445:7453   */\n      dup4\n        /* \"#utility.yul\":7441:7473   */\n      add\n        /* \"#utility.yul\":7438:7479   */\n      gt\n        /* \"#utility.yul\":7435:7563   */\n      iszero\n      tag_270\n      jumpi\n        /* \"#utility.yul\":7482:7561   */\n      tag_271\n      tag_170\n      jump\t// in\n    tag_271:\n        /* \"#utility.yul\":7435:7563   */\n    tag_270:\n        /* \"#utility.yul\":7016:7569   */\n      swap3\n      pop\n      swap3\n      swap1\n      pop\n      jump\t// out\n        /* \"#utility.yul\":7575:8104   */\n    tag_72:\n        /* \"#utility.yul\":7646:7652   */\n      0x00\n        /* \"#utility.yul\":7654:7660   */\n      dup1\n        /* \"#utility.yul\":7703:7705   */\n      0x20\n        /* \"#utility.yul\":7691:7700   */\n      dup4\n        /* \"#utility.yul\":7682:7689   */\n      dup6\n        /* \"#utility.yul\":7678:7701   */\n      sub\n        /* \"#utility.yul\":7674:7706   */\n      slt\n        /* \"#utility.yul\":7671:7790   */\n      iszero\n      tag_273\n      jumpi\n        /* \"#utility.yul\":7709:7788   */\n      tag_274\n      tag_149\n      jump\t// in\n    tag_274:\n        /* \"#utility.yul\":7671:7790   */\n    tag_273:\n        /* \"#utility.yul\":7857:7858   */\n      0x00\n        /* \"#utility.yul\":7846:7855   */\n      dup4\n        /* \"#utility.yul\":7842:7859   */\n      add\n        /* \"#utility.yul\":7829:7860   */\n      calldataload\n        /* \"#utility.yul\":7887:7905   */\n      0xffffffffffffffff\n        /* \"#utility.yul\":7879:7885   */\n      dup2\n        /* \"#utility.yul\":7876:7906   */\n      gt\n        /* \"#utility.yul\":7873:7990   */\n      iszero\n      tag_275\n      jumpi\n        /* \"#utility.yul\":7909:7988   */\n      tag_276\n      tag_150\n      jump\t// in\n    tag_276:\n        /* \"#utility.yul\":7873:7990   */\n    tag_275:\n        /* \"#utility.yul\":8022:8087   */\n      tag_277\n        /* \"#utility.yul\":8079:8086   */\n      dup6\n        /* \"#utility.yul\":8070:8076   */\n      dup3\n        /* \"#utility.yul\":8059:8068   */\n      dup7\n        /* \"#utility.yul\":8055:8077   */\n      add\n        /* \"#utility.yul\":8022:8087   */\n      tag_171\n      jump\t// in\n    tag_277:\n        /* \"#utility.yul\":8004:8087   */\n      swap3\n      pop\n      swap3\n      pop\n        /* \"#utility.yul\":7800:8097   */\n      pop\n        /* \"#utility.yul\":7575:8104   */\n      swap3\n      pop\n      swap3\n      swap1\n      pop\n      jump\t// out\n        /* \"#utility.yul\":8110:8290   */\n    tag_104:\n        /* \"#utility.yul\":8158:8235   */\n      0x4e487b7100000000000000000000000000000000000000000000000000000000\n        /* \"#utility.yul\":8155:8156   */\n      0x00\n        /* \"#utility.yul\":8148:8236   */\n      mstore\n        /* \"#utility.yul\":8255:8259   */\n      0x21\n        /* \"#utility.yul\":8252:8253   */\n      0x04\n        /* \"#utility.yul\":8245:8260   */\n      mstore\n        /* \"#utility.yul\":8279:8283   */\n      0x24\n        /* \"#utility.yul\":8276:8277   */\n      0x00\n        /* \"#utility.yul\":8269:8284   */\n      revert\n        /* \"#utility.yul\":8296:8417   */\n    tag_172:\n        /* \"#utility.yul\":8385:8386   */\n      0x02\n        /* \"#utility.yul\":8378:8383   */\n      dup2\n        /* \"#utility.yul\":8375:8387   */\n      lt\n        /* \"#utility.yul\":8365:8411   */\n      tag_280\n      jumpi\n        /* \"#utility.yul\":8391:8409   */\n      tag_281\n      tag_104\n      jump\t// in\n    tag_281:\n        /* \"#utility.yul\":8365:8411   */\n    tag_280:\n        /* \"#utility.yul\":8296:8417   */\n      pop\n      jump\t// out\n        /* \"#utility.yul\":8423:8566   */\n    tag_173:\n        /* \"#utility.yul\":8476:8483   */\n      0x00\n        /* \"#utility.yul\":8505:8510   */\n      dup2\n        /* \"#utility.yul\":8494:8510   */\n      swap1\n      pop\n        /* \"#utility.yul\":8511:8560   */\n      tag_283\n        /* \"#utility.yul\":8554:8559   */\n      dup3\n        /* \"#utility.yul\":8511:8560   */\n      tag_172\n      jump\t// in\n    tag_283:\n        /* \"#utility.yul\":8423:8566   */\n      swap2\n      swap1\n      pop\n      jump\t// out\n        /* \"#utility.yul\":8572:8715   */\n    tag_174:\n        /* \"#utility.yul\":8636:8645   */\n      0x00\n        /* \"#utility.yul\":8669:8709   */\n      tag_285\n        /* \"#utility.yul\":8703:8708   */\n      dup3\n        /* \"#utility.yul\":8669:8709   */\n      tag_173\n      jump\t// in\n    tag_285:\n        /* \"#utility.yul\":8656:8709   */\n      swap1\n      pop\n        /* \"#utility.yul\":8572:8715   */\n      swap2\n      swap1\n      pop\n      jump\t// out\n        /* \"#utility.yul\":8721:8880   */\n    tag_175:\n        /* \"#utility.yul\":8822:8873   */\n      tag_287\n        /* \"#utility.yul\":8867:8872   */\n      dup2\n        /* \"#utility.yul\":8822:8873   */\n      tag_174\n      jump\t// in\n    tag_287:\n        /* \"#utility.yul\":8817:8820   */\n      dup3\n        /* \"#utility.yul\":8810:8874   */\n      mstore\n        /* \"#utility.yul\":8721:8880   */\n      pop\n      pop\n      jump\t// out\n        /* \"#utility.yul\":8886:9136   */\n    tag_83:\n        /* \"#utility.yul\":8993:8997   */\n      0x00\n        /* \"#utility.yul\":9031:9033   */\n      0x20\n        /* \"#utility.yul\":9020:9029   */\n      dup3\n        /* \"#utility.yul\":9016:9034   */\n      add\n        /* \"#utility.yul\":9008:9034   */\n      swap1\n      pop\n        /* \"#utility.yul\":9044:9129   */\n      tag_289\n        /* \"#utility.yul\":9126:9127   */\n      0x00\n        /* \"#utility.yul\":9115:9124   */\n      dup4\n        /* \"#utility.yul\":9111:9128   */\n      add\n        /* \"#utility.yul\":9102:9108   */\n      dup5\n        /* \"#utility.yul\":9044:9129   */\n      tag_175\n      jump\t// in\n    tag_289:\n        /* \"#utility.yul\":8886:9136   */\n      swap3\n      swap2\n      pop\n      pop\n      jump\t// out\n        /* \"#utility.yul\":9142:9322   */\n    tag_176:\n        /* \"#utility.yul\":9190:9267   */\n      0x4e487b7100000000000000000000000000000000000000000000000000000000\n        /* \"#utility.yul\":9187:9188   */\n      0x00\n        /* \"#utility.yul\":9180:9268   */\n      mstore\n        /* \"#utility.yul\":9287:9291   */\n      0x11\n        /* \"#utility.yul\":9284:9285   */\n      0x04\n        /* \"#utility.yul\":9277:9292   */\n      mstore\n        /* \"#utility.yul\":9311:9315   */\n      0x24\n        /* \"#utility.yul\":9308:9309   */\n      0x00\n        /* \"#utility.yul\":9301:9316   */\n      revert\n        /* \"#utility.yul\":9328:9519   */\n    tag_96:\n        /* \"#utility.yul\":9368:9371   */\n      0x00\n        /* \"#utility.yul\":9387:9407   */\n      tag_292\n        /* \"#utility.yul\":9405:9406   */\n      dup3\n        /* \"#utility.yul\":9387:9407   */\n      tag_146\n      jump\t// in\n    tag_292:\n        /* \"#utility.yul\":9382:9407   */\n      swap2\n      pop\n        /* \"#utility.yul\":9421:9441   */\n      tag_293\n        /* \"#utility.yul\":9439:9440   */\n      dup4\n        /* \"#utility.yul\":9421:9441   */\n      tag_146\n      jump\t// in\n    tag_293:\n        /* \"#utility.yul\":9416:9441   */\n      swap3\n      pop\n        /* \"#utility.yul\":9464:9465   */\n      dup3\n        /* \"#utility.yul\":9461:9462   */\n      dup3\n        /* \"#utility.yul\":9457:9466   */\n      add\n        /* \"#utility.yul\":9450:9466   */\n      swap1\n      pop\n        /* \"#utility.yul\":9485:9488   */\n      dup1\n        /* \"#utility.yul\":9482:9483   */\n      dup3\n        /* \"#utility.yul\":9479:9489   */\n      gt\n        /* \"#utility.yul\":9476:9512   */\n      iszero\n      tag_294\n      jumpi\n        /* \"#utility.yul\":9492:9510   */\n      tag_295\n      tag_176\n      jump\t// in\n    tag_295:\n        /* \"#utility.yul\":9476:9512   */\n    tag_294:\n        /* \"#utility.yul\":9328:9519   */\n      swap3\n      swap2\n      pop\n      pop\n      jump\t// out\n        /* \"#utility.yul\":9525:9758   */\n    tag_98:\n        /* \"#utility.yul\":9564:9567   */\n      0x00\n        /* \"#utility.yul\":9587:9611   */\n      tag_297\n        /* \"#utility.yul\":9605:9610   */\n      dup3\n        /* \"#utility.yul\":9587:9611   */\n      tag_146\n      jump\t// in\n    tag_297:\n        /* \"#utility.yul\":9578:9611   */\n      swap2\n      pop\n        /* \"#utility.yul\":9633:9699   */\n      0xffffffffffffffffffffffffffffffffffffffffffffffffffffffffffffffff\n        /* \"#utility.yul\":9626:9631   */\n      dup3\n        /* \"#utility.yul\":9623:9700   */\n      sub\n        /* \"#utility.yul\":9620:9723   */\n      tag_298\n      jumpi\n        /* \"#utility.yul\":9703:9721   */\n      tag_299\n      tag_176\n      jump\t// in\n    tag_299:\n        /* \"#utility.yul\":9620:9723   */\n    tag_298:\n        /* \"#utility.yul\":9750:9751   */\n      0x01\n        /* \"#utility.yul\":9743:9748   */\n      dup3\n        /* \"#utility.yul\":9739:9752   */\n      add\n        /* \"#utility.yul\":9732:9752   */\n      swap1\n      pop\n        /* \"#utility.yul\":9525:9758   */\n      swap2\n      swap1\n      pop\n      jump\t// out\n        /* \"#utility.yul\":9764:9912   */\n    tag_177:\n        /* \"#utility.yul\":9866:9877   */\n      0x00\n        /* \"#utility.yul\":9903:9906   */\n      dup2\n        /* \"#utility.yul\":9888:9906   */\n      swap1\n      pop\n        /* \"#utility.yul\":9764:9912   */\n      swap3\n      swap2\n      pop\n      pop\n      jump\t// out\n        /* \"#utility.yul\":9918:10308   */\n    tag_178:\n        /* \"#utility.yul\":10024:10027   */\n      0x00\n        /* \"#utility.yul\":10052:10091   */\n      tag_302\n        /* \"#utility.yul\":10085:10090   */\n      dup3\n        /* \"#utility.yul\":10052:10091   */\n      tag_155\n      jump\t// in\n    tag_302:\n        /* \"#utility.yul\":10107:10196   */\n      tag_303\n        /* \"#utility.yul\":10189:10195   */\n      dup2\n        /* \"#utility.yul\":10184:10187   */\n      dup6\n        /* \"#utility.yul\":10107:10196   */\n      tag_177\n      jump\t// in\n    tag_303:\n        /* \"#utility.yul\":10100:10196   */\n      swap4\n      pop\n        /* \"#utility.yul\":10205:10270   */\n      tag_304\n        /* \"#utility.yul\":10263:10269   */\n      dup2\n        /* \"#utility.yul\":10258:10261   */\n      dup6\n        /* \"#utility.yul\":10251:10255   */\n      0x20\n        /* \"#utility.yul\":10244:10249   */\n      dup7\n        /* \"#utility.yul\":10240:10256   */\n      add\n        /* \"#utility.yul\":10205:10270   */\n      tag_157\n      jump\t// in\n    tag_304:\n        /* \"#utility.yul\":10295:10301   */\n      dup1\n        /* \"#utility.yul\":10290:10293   */\n      dup5\n        /* \"#utility.yul\":10286:10302   */\n      add\n        /* \"#utility.yul\":10279:10302   */\n      swap2\n      pop\n        /* \"#utility.yul\":10028:10308   */\n      pop\n        /* \"#utility.yul\":9918:10308   */\n      swap3\n      swap2\n      pop\n      pop\n      jump\t// out\n        /* \"#utility.yul\":10314:10589   */\n    tag_112:\n        /* \"#utility.yul\":10446:10449   */\n      0x00\n        /* \"#utility.yul\":10468:10563   */\n      tag_306\n        /* \"#utility.yul\":10559:10562   */\n      dup3\n        /* \"#utility.yul\":10550:10556   */\n      dup5\n        /* \"#utility.yul\":10468:10563   */\n      tag_178\n      jump\t// in\n    tag_306:\n        /* \"#utility.yul\":10461:10563   */\n      swap2\n      pop\n        /* \"#utility.yul\":10580:10583   */\n      dup2\n        /* \"#utility.yul\":10573:10583   */\n      swap1\n      pop\n        /* \"#utility.yul\":10314:10589   */\n      swap3\n      swap2\n      pop\n      pop\n      jump\t// out\n        /* \"#utility.yul\":10595:10775   */\n    tag_179:\n        /* \"#utility.yul\":10643:10720   */\n      0x4e487b7100000000000000000000000000000000000000000000000000000000\n        /* \"#utility.yul\":10640:10641   */\n      0x00\n        /* \"#utility.yul\":10633:10721   */\n      mstore\n        /* \"#utility.yul\":10740:10744   */\n      0x22\n        /* \"#utility.yul\":10737:10738   */\n      0x04\n        /* \"#utility.yul\":10730:10745   */\n      mstore\n        /* \"#utility.yul\":10764:10768   */\n      0x24\n        /* \"#utility.yul\":10761:10762   */\n      0x00\n        /* \"#utility.yul\":10754:10769   */\n      revert\n        /* \"#utility.yul\":10781:11101   */\n    tag_122:\n        /* \"#utility.yul\":10825:10831   */\n      0x00\n        /* \"#utility.yul\":10862:10863   */\n      0x02\n        /* \"#utility.yul\":10856:10860   */\n      dup3\n        /* \"#utility.yul\":10852:10864   */\n      div\n        /* \"#utility.yul\":10842:10864   */\n      swap1\n      pop\n        /* \"#utility.yul\":10909:10910   */\n      0x01\n        /* \"#utility.yul\":10903:10907   */\n      dup3\n        /* \"#utility.yul\":10899:10911   */\n      and\n        /* \"#utility.yul\":10930:10948   */\n      dup1\n        /* \"#utility.yul\":10920:11001   */\n      tag_309\n      jumpi\n        /* \"#utility.yul\":10986:10990   */\n      0x7f\n        /* \"#utility.yul\":10978:10984   */\n      dup3\n        /* \"#utility.yul\":10974:10991   */\n      and\n        /* \"#utility.yul\":10964:10991   */\n      swap2\n      pop\n        /* \"#utility.yul\":10920:11001   */\n    tag_309:\n        /* \"#utility.yul\":11048:11050   */\n      0x20\n        /* \"#utility.yul\":11040:11046   */\n      dup3\n        /* \"#utility.yul\":11037:11051   */\n      lt\n        /* \"#utility.yul\":11017:11035   */\n      dup2\n        /* \"#utility.yul\":11014:11052   */\n      sub\n        /* \"#utility.yul\":11011:11095   */\n      tag_310\n      jumpi\n        /* \"#utility.yul\":11067:11085   */\n      tag_311\n      tag_179\n      jump\t// in\n    tag_311:\n        /* \"#utility.yul\":11011:11095   */\n    tag_310:\n        /* \"#utility.yul\":10832:11101   */\n      pop\n        /* \"#utility.yul\":10781:11101   */\n      swap2\n      swap1\n      pop\n      jump\t// out\n        /* \"#utility.yul\":11131:11461   */\n    tag_180:\n        /* \"#utility.yul\":11247:11250   */\n      0x00\n        /* \"#utility.yul\":11268:11357   */\n      tag_313\n        /* \"#utility.yul\":11350:11356   */\n      dup4\n        /* \"#utility.yul\":11345:11348   */\n      dup6\n        /* \"#utility.yul\":11268:11357   */\n      tag_177\n      jump\t// in\n    tag_313:\n        /* \"#utility.yul\":11261:11357   */\n      swap4\n      pop\n        /* \"#utility.yul\":11367:11423   */\n      tag_314\n        /* \"#utility.yul\":11416:11422   */\n      dup4\n        /* \"#utility.yul\":11411:11414   */\n      dup6\n        /* \"#utility.yul\":11404:11409   */\n      dup5\n        /* \"#utility.yul\":11367:11423   */\n      tag_166\n      jump\t// in\n    tag_314:\n        /* \"#utility.yul\":11448:11454   */\n      dup3\n        /* \"#utility.yul\":11443:11446   */\n      dup5\n        /* \"#utility.yul\":11439:11455   */\n      add\n        /* \"#utility.yul\":11432:11455   */\n      swap1\n      pop\n        /* \"#utility.yul\":11131:11461   */\n      swap4\n      swap3\n      pop\n      pop\n      pop\n      jump\t// out\n        /* \"#utility.yul\":11467:11623   */\n    tag_181:\n        /* \"#utility.yul\":11607:11615   */\n      0x20576f6f77210000000000000000000000000000000000000000000000000000\n        /* \"#utility.yul\":11603:11604   */\n      0x00\n        /* \"#utility.yul\":11595:11601   */\n      dup3\n        /* \"#utility.yul\":11591:11605   */\n      add\n        /* \"#utility.yul\":11584:11616   */\n      mstore\n        /* \"#utility.yul\":11467:11623   */\n      pop\n      jump\t// out\n        /* \"#utility.yul\":11629:12029   */\n    tag_182:\n        /* \"#utility.yul\":11789:11792   */\n      0x00\n        /* \"#utility.yul\":11810:11894   */\n      tag_317\n        /* \"#utility.yul\":11892:11893   */\n      0x06\n        /* \"#utility.yul\":11887:11890   */\n      dup4\n        /* \"#utility.yul\":11810:11894   */\n      tag_177\n      jump\t// in\n    tag_317:\n        /* \"#utility.yul\":11803:11894   */\n      swap2\n      pop\n        /* \"#utility.yul\":11903:11996   */\n      tag_318\n        /* \"#utility.yul\":11992:11995   */\n      dup3\n        /* \"#utility.yul\":11903:11996   */\n      tag_181\n      jump\t// in\n    tag_318:\n        /* \"#utility.yul\":12021:12022   */\n      0x06\n        /* \"#utility.yul\":12016:12019   */\n      dup3\n        /* \"#utility.yul\":12012:12023   */\n      add\n        /* \"#utility.yul\":12005:12023   */\n      swap1\n      pop\n        /* \"#utility.yul\":11629:12029   */\n      swap2\n      swap1\n      pop\n      jump\t// out\n        /* \"#utility.yul\":12035:12596   */\n    tag_132:\n        /* \"#utility.yul\":12278:12281   */\n      0x00\n        /* \"#utility.yul\":12300:12405   */\n      tag_320\n        /* \"#utility.yul\":12401:12404   */\n      dup3\n        /* \"#utility.yul\":12392:12398   */\n      dup5\n        /* \"#utility.yul\":12384:12390   */\n      dup7\n        /* \"#utility.yul\":12300:12405   */\n      tag_180\n      jump\t// in\n    tag_320:\n        /* \"#utility.yul\":12293:12405   */\n      swap2\n      pop\n        /* \"#utility.yul\":12422:12570   */\n      tag_321\n        /* \"#utility.yul\":12566:12569   */\n      dup3\n        /* \"#utility.yul\":12422:12570   */\n      tag_182\n      jump\t// in\n    tag_321:\n        /* \"#utility.yul\":12415:12570   */\n      swap2\n      pop\n        /* \"#utility.yul\":12587:12590   */\n      dup2\n        /* \"#utility.yul\":12580:12590   */\n      swap1\n      pop\n        /* \"#utility.yul\":12035:12596   */\n      swap4\n      swap3\n      pop\n      pop\n      pop\n      jump\t// out\n        /* \"#utility.yul\":12602:12728   */\n    tag_183:\n        /* \"#utility.yul\":12639:12646   */\n      0x00\n        /* \"#utility.yul\":12679:12721   */\n      0xffffffffffffffffffffffffffffffffffffffff\n        /* \"#utility.yul\":12672:12677   */\n      dup3\n        /* \"#utility.yul\":12668:12722   */\n      and\n        /* \"#utility.yul\":12657:12722   */\n      swap1\n      pop\n        /* \"#utility.yul\":12602:12728   */\n      swap2\n      swap1\n      pop\n      jump\t// out\n        /* \"#utility.yul\":12734:12830   */\n    tag_184:\n        /* \"#utility.yul\":12771:12778   */\n      0x00\n        /* \"#utility.yul\":12800:12824   */\n      tag_324\n        /* \"#utility.yul\":12818:12823   */\n      dup3\n        /* \"#utility.yul\":12800:12824   */\n      tag_183\n      jump\t// in\n    tag_324:\n        /* \"#utility.yul\":12789:12824   */\n      swap1\n      pop\n        /* \"#utility.yul\":12734:12830   */\n      swap2\n      swap1\n      pop\n      jump\t// out\n        /* \"#utility.yul\":12836:12954   */\n    tag_185:\n        /* \"#utility.yul\":12923:12947   */\n      tag_326\n        /* \"#utility.yul\":12941:12946   */\n      dup2\n        /* \"#utility.yul\":12923:12947   */\n      tag_184\n      jump\t// in\n    tag_326:\n        /* \"#utility.yul\":12918:12921   */\n      dup3\n        /* \"#utility.yul\":12911:12948   */\n      mstore\n        /* \"#utility.yul\":12836:12954   */\n      pop\n      pop\n      jump\t// out\n        /* \"#utility.yul\":12960:13292   */\n    tag_135:\n        /* \"#utility.yul\":13081:13085   */\n      0x00\n        /* \"#utility.yul\":13119:13121   */\n      0x40\n        /* \"#utility.yul\":13108:13117   */\n      dup3\n        /* \"#utility.yul\":13104:13122   */\n      add\n        /* \"#utility.yul\":13096:13122   */\n      swap1\n      pop\n        /* \"#utility.yul\":13132:13203   */\n      tag_328\n        /* \"#utility.yul\":13200:13201   */\n      0x00\n        /* \"#utility.yul\":13189:13198   */\n      dup4\n        /* \"#utility.yul\":13185:13202   */\n      add\n        /* \"#utility.yul\":13176:13182   */\n      dup6\n        /* \"#utility.yul\":13132:13203   */\n      tag_147\n      jump\t// in\n    tag_328:\n        /* \"#utility.yul\":13213:13285   */\n      tag_329\n        /* \"#utility.yul\":13281:13283   */\n      0x20\n        /* \"#utility.yul\":13270:13279   */\n      dup4\n        /* \"#utility.yul\":13266:13284   */\n      add\n        /* \"#utility.yul\":13257:13263   */\n      dup5\n        /* \"#utility.yul\":13213:13285   */\n      tag_185\n      jump\t// in\n    tag_329:\n        /* \"#utility.yul\":12960:13292   */\n      swap4\n      swap3\n      pop\n      pop\n      pop\n      jump\t// out\n        /* \"#utility.yul\":13298:13732   */\n    tag_186:\n        /* \"#utility.yul\":13387:13392   */\n      0x00\n        /* \"#utility.yul\":13412:13478   */\n      tag_331\n        /* \"#utility.yul\":13428:13477   */\n      tag_332\n        /* \"#utility.yul\":13470:13476   */\n      dup5\n        /* \"#utility.yul\":13428:13477   */\n      tag_165\n      jump\t// in\n    tag_332:\n        /* \"#utility.yul\":13412:13478   */\n      tag_164\n      jump\t// in\n    tag_331:\n        /* \"#utility.yul\":13403:13478   */\n      swap1\n      pop\n        /* \"#utility.yul\":13501:13507   */\n      dup3\n        /* \"#utility.yul\":13494:13499   */\n      dup2\n        /* \"#utility.yul\":13487:13508   */\n      mstore\n        /* \"#utility.yul\":13539:13543   */\n      0x20\n        /* \"#utility.yul\":13532:13537   */\n      dup2\n        /* \"#utility.yul\":13528:13544   */\n      add\n        /* \"#utility.yul\":13577:13580   */\n      dup5\n        /* \"#utility.yul\":13568:13574   */\n      dup5\n        /* \"#utility.yul\":13563:13566   */\n      dup5\n        /* \"#utility.yul\":13559:13575   */\n      add\n        /* \"#utility.yul\":13556:13581   */\n      gt\n        /* \"#utility.yul\":13553:13665   */\n      iszero\n      tag_333\n      jumpi\n        /* \"#utility.yul\":13584:13663   */\n      tag_334\n      tag_161\n      jump\t// in\n    tag_334:\n        /* \"#utility.yul\":13553:13665   */\n    tag_333:\n        /* \"#utility.yul\":13674:13726   */\n      tag_335\n        /* \"#utility.yul\":13719:13725   */\n      dup5\n        /* \"#utility.yul\":13714:13717   */\n      dup3\n        /* \"#utility.yul\":13709:13712   */\n      dup6\n        /* \"#utility.yul\":13674:13726   */\n      tag_157\n      jump\t// in\n    tag_335:\n        /* \"#utility.yul\":13393:13732   */\n      pop\n        /* \"#utility.yul\":13298:13732   */\n      swap4\n      swap3\n      pop\n      pop\n      pop\n      jump\t// out\n        /* \"#utility.yul\":13752:14107   */\n    tag_187:\n        /* \"#utility.yul\":13819:13824   */\n      0x00\n        /* \"#utility.yul\":13868:13871   */\n      dup3\n        /* \"#utility.yul\":13861:13865   */\n      0x1f\n        /* \"#utility.yul\":13853:13859   */\n      dup4\n        /* \"#utility.yul\":13849:13866   */\n      add\n        /* \"#utility.yul\":13845:13872   */\n      slt\n        /* \"#utility.yul\":13835:13957   */\n      tag_337\n      jumpi\n        /* \"#utility.yul\":13876:13955   */\n      tag_338\n      tag_160\n      jump\t// in\n    tag_338:\n        /* \"#utility.yul\":13835:13957   */\n    tag_337:\n        /* \"#utility.yul\":13986:13992   */\n      dup2\n        /* \"#utility.yul\":13980:13993   */\n      mload\n        /* \"#utility.yul\":14011:14101   */\n      tag_339\n        /* \"#utility.yul\":14097:14100   */\n      dup5\n        /* \"#utility.yul\":14089:14095   */\n      dup3\n        /* \"#utility.yul\":14082:14086   */\n      0x20\n        /* \"#utility.yul\":14074:14080   */\n      dup7\n        /* \"#utility.yul\":14070:14087   */\n      add\n        /* \"#utility.yul\":14011:14101   */\n      tag_186\n      jump\t// in\n    tag_339:\n        /* \"#utility.yul\":14002:14101   */\n      swap2\n      pop\n        /* \"#utility.yul\":13825:14107   */\n      pop\n        /* \"#utility.yul\":13752:14107   */\n      swap3\n      swap2\n      pop\n      pop\n      jump\t// out\n        /* \"#utility.yul\":14113:14637   */\n    tag_144:\n        /* \"#utility.yul\":14193:14199   */\n      0x00\n        /* \"#utility.yul\":14242:14244   */\n      0x20\n        /* \"#utility.yul\":14230:14239   */\n      dup3\n        /* \"#utility.yul\":14221:14228   */\n      dup5\n        /* \"#utility.yul\":14217:14240   */\n      sub\n        /* \"#utility.yul\":14213:14245   */\n      slt\n        /* \"#utility.yul\":14210:14329   */\n      iszero\n      tag_341\n      jumpi\n        /* \"#utility.yul\":14248:14327   */\n      tag_342\n      tag_149\n      jump\t// in\n    tag_342:\n        /* \"#utility.yul\":14210:14329   */\n    tag_341:\n        /* \"#utility.yul\":14389:14390   */\n      0x00\n        /* \"#utility.yul\":14378:14387   */\n      dup3\n        /* \"#utility.yul\":14374:14391   */\n      add\n        /* \"#utility.yul\":14368:14392   */\n      mload\n        /* \"#utility.yul\":14419:14437   */\n      0xffffffffffffffff\n        /* \"#utility.yul\":14411:14417   */\n      dup2\n        /* \"#utility.yul\":14408:14438   */\n      gt\n        /* \"#utility.yul\":14405:14522   */\n      iszero\n      tag_343\n      jumpi\n        /* \"#utility.yul\":14441:14520   */\n      tag_344\n      tag_150\n      jump\t// in\n    tag_344:\n        /* \"#utility.yul\":14405:14522   */\n    tag_343:\n        /* \"#utility.yul\":14546:14620   */\n      tag_345\n        /* \"#utility.yul\":14612:14619   */\n      dup5\n        /* \"#utility.yul\":14603:14609   */\n      dup3\n        /* \"#utility.yul\":14592:14601   */\n      dup6\n        /* \"#utility.yul\":14588:14610   */\n      add\n        /* \"#utility.yul\":14546:14620   */\n      tag_187\n      jump\t// in\n    tag_345:\n        /* \"#utility.yul\":14536:14620   */\n      swap2\n      pop\n        /* \"#utility.yul\":14339:14630   */\n      pop\n        /* \"#utility.yul\":14113:14637   */\n      swap3\n      swap2\n      pop\n      pop\n      jump\t// out\n\n    auxdata: 0xa26469706673582212204644d79bd9f3c7323c4c9c22da57af95648afe16fa135aa9c000800e082b262d64736f6c634300081a0033\n}\n",
				"bytecode": {
					"linkReferences": {},
					"object": "6080604052348015600e575f80fd5b50610f068061001c5f395ff3fe608060405234801561000f575f80fd5b5060043610610114575f3560e01c80639e7a13ad116100a0578063b63394181161006f578063b6339418146102e1578063bca353be146102fd578063c19d93fb14610307578063cb6a33f814610325578063e0819c9a1461035557610114565b80639e7a13ad14610246578063a621d15e14610277578063a7e1a36414610295578063b39e12b5146102b157610114565b80633a32b549116100e75780633a32b549146101b45780636f760f41146101d25780638701f8ca146101ee5780638bab8dd51461020c5780638fda356d1461023c57610114565b80630cd2636e146101185780631db05a881461013657806322f3e2d41461016657806329cd1d9614610184575b5f80fd5b610120610373565b60405161012d919061075f565b60405180910390f35b610150600480360381019061014b91906107b3565b6103af565b60405161015d919061075f565b60405180910390f35b61016e6103c9565b60405161017b91906107f8565b60405180910390f35b61019e600480360381019061019991906107b3565b610404565b6040516101ab919061075f565b60405180910390f35b6101bc610424565b6040516101c99190610881565b60405180910390f35b6101ec60048036038101906101e791906109cd565b610461565b005b6101f6610488565b6040516102039190610881565b60405180910390f35b61022660048036038101906102219190610a27565b610497565b604051610233919061075f565b60405180910390f35b6102446104c4565b005b610260600480360381019061025b91906107b3565b6104ef565b60405161026e929190610a6e565b60405180910390f35b61027f6105a4565b60405161028c919061075f565b60405180910390f35b6102af60048036038101906102aa91906107b3565b6105ac565b005b6102cb60048036038101906102c69190610af9565b6105d5565b6040516102d89190610881565b60405180910390f35b6102fb60048036038101906102f691906107b3565b610606565b005b610305610649565b005b61030f610675565b60405161031c9190610bb7565b60405180910390f35b61033f600480360381019061033a91906107b3565b610687565b60405161034c91906107f8565b60405180910390f35b61035d610693565b60405161036a9190610881565b60405180910390f35b5f805f90505f600190505b5f5481116103a75780826103929190610bfd565b9150808061039f90610c30565b91505061037e565b508091505090565b5f806005836103be9190610bfd565b905080915050919050565b5f8060018111156103dd576103dc610b44565b5b60035f9054906101000a900460ff1660018111156103fe576103fd610b44565b5b14905090565b60018181548110610413575f80fd5b905f5260205f20015f915090505481565b60606040518060400160405280602081526020017f486f706520796f752061726520686176696e6720612067726561742074696d65815250905090565b806004836040516104729190610cb1565b9081526020016040518091039020819055505050565b606061049261070a565b905090565b6004818051602081018201805184825260208301602085012081835280955050505050505f915090505481565b5f60035f6101000a81548160ff021916908360018111156104e8576104e7610b44565b5b0217905550565b600281815481106104fe575f80fd5b905f5260205f2090600202015f91509050805f01805461051d90610cf4565b80601f016020809104026020016040519081016040528092919081815260200182805461054990610cf4565b80156105945780601f1061056b57610100808354040283529160200191610594565b820191905f5260205f20905b81548152906001019060200180831161057757829003601f168201915b5050505050908060010154905082565b5f8054905090565b600181908060018154018082558091505060019003905f5260205f20015f909190919091505550565b60605f83836040516020016105eb929190610d92565b60405160208183030381529060405290508091505092915050565b805f819055507fe5f28171f43fc54876f02589c23cc70d19e06f868cc3811c456e8c61c296a27e5f543360405161063e929190610df4565b60405180910390a150565b600160035f6101000a81548160ff0219169083600181111561066e5761066d610b44565b5b0217905550565b60035f9054906101000a900460ff1681565b5f815f54119050919050565b60603073ffffffffffffffffffffffffffffffffffffffff16633a32b5496040518163ffffffff1660e01b81526004015f60405180830381865afa1580156106dd573d5f803e3d5ffd5b505050506040513d5f823e3d601f19601f820116820180604052508101906107059190610e89565b905090565b60606040518060400160405280600e81526020017f596f7527726520617765736f6d65000000000000000000000000000000000000815250905090565b5f819050919050565b61075981610747565b82525050565b5f6020820190506107725f830184610750565b92915050565b5f604051905090565b5f80fd5b5f80fd5b61079281610747565b811461079c575f80fd5b50565b5f813590506107ad81610789565b92915050565b5f602082840312156107c8576107c7610781565b5b5f6107d58482850161079f565b91505092915050565b5f8115159050919050565b6107f2816107de565b82525050565b5f60208201905061080b5f8301846107e9565b92915050565b5f81519050919050565b5f82825260208201905092915050565b8281835e5f83830152505050565b5f601f19601f8301169050919050565b5f61085382610811565b61085d818561081b565b935061086d81856020860161082b565b61087681610839565b840191505092915050565b5f6020820190508181035f8301526108998184610849565b905092915050565b5f80fd5b5f80fd5b7f4e487b71000000000000000000000000000000000000000000000000000000005f52604160045260245ffd5b6108df82610839565b810181811067ffffffffffffffff821117156108fe576108fd6108a9565b5b80604052505050565b5f610910610778565b905061091c82826108d6565b919050565b5f67ffffffffffffffff82111561093b5761093a6108a9565b5b61094482610839565b9050602081019050919050565b828183375f83830152505050565b5f61097161096c84610921565b610907565b90508281526020810184848401111561098d5761098c6108a5565b5b610998848285610951565b509392505050565b5f82601f8301126109b4576109b36108a1565b5b81356109c484826020860161095f565b91505092915050565b5f80604083850312156109e3576109e2610781565b5b5f83013567ffffffffffffffff811115610a00576109ff610785565b5b610a0c858286016109a0565b9250506020610a1d8582860161079f565b9150509250929050565b5f60208284031215610a3c57610a3b610781565b5b5f82013567ffffffffffffffff811115610a5957610a58610785565b5b610a65848285016109a0565b91505092915050565b5f6040820190508181035f830152610a868185610849565b9050610a956020830184610750565b9392505050565b5f80fd5b5f80fd5b5f8083601f840112610ab957610ab86108a1565b5b8235905067ffffffffffffffff811115610ad657610ad5610a9c565b5b602083019150836001820283011115610af257610af1610aa0565b5b9250929050565b5f8060208385031215610b0f57610b0e610781565b5b5f83013567ffffffffffffffff811115610b2c57610b2b610785565b5b610b3885828601610aa4565b92509250509250929050565b7f4e487b71000000000000000000000000000000000000000000000000000000005f52602160045260245ffd5b60028110610b8257610b81610b44565b5b50565b5f819050610b9282610b71565b919050565b5f610ba182610b85565b9050919050565b610bb181610b97565b82525050565b5f602082019050610bca5f830184610ba8565b92915050565b7f4e487b71000000000000000000000000000000000000000000000000000000005f52601160045260245ffd5b5f610c0782610747565b9150610c1283610747565b9250828201905080821115610c2a57610c29610bd0565b5b92915050565b5f610c3a82610747565b91507fffffffffffffffffffffffffffffffffffffffffffffffffffffffffffffffff8203610c6c57610c6b610bd0565b5b600182019050919050565b5f81905092915050565b5f610c8b82610811565b610c958185610c77565b9350610ca581856020860161082b565b80840191505092915050565b5f610cbc8284610c81565b915081905092915050565b7f4e487b71000000000000000000000000000000000000000000000000000000005f52602260045260245ffd5b5f6002820490506001821680610d0b57607f821691505b602082108103610d1e57610d1d610cc7565b5b50919050565b5f610d2f8385610c77565b9350610d3c838584610951565b82840190509392505050565b7f20576f6f772100000000000000000000000000000000000000000000000000005f82015250565b5f610d7c600683610c77565b9150610d8782610d48565b600682019050919050565b5f610d9e828486610d24565b9150610da982610d70565b91508190509392505050565b5f73ffffffffffffffffffffffffffffffffffffffff82169050919050565b5f610dde82610db5565b9050919050565b610dee81610dd4565b82525050565b5f604082019050610e075f830185610750565b610e146020830184610de5565b9392505050565b5f610e2d610e2884610921565b610907565b905082815260208101848484011115610e4957610e486108a5565b5b610e5484828561082b565b509392505050565b5f82601f830112610e7057610e6f6108a1565b5b8151610e80848260208601610e1b565b91505092915050565b5f60208284031215610e9e57610e9d610781565b5b5f82015167ffffffffffffffff811115610ebb57610eba610785565b5b610ec784828501610e5c565b9150509291505056fea26469706673582212204644d79bd9f3c7323c4c9c22da57af95648afe16fa135aa9c000800e082b262d64736f6c634300081a0033",
					"opcodes": "PUSH1 0x80 PUSH1 0x40 MSTORE CALLVALUE DUP1 ISZERO PUSH1 0xE JUMPI PUSH0 DUP1 REVERT JUMPDEST POP PUSH2 0xF06 DUP1 PUSH2 0x1C PUSH0 CODECOPY PUSH0 RETURN INVALID PUSH1 0x80 PUSH1 0x40 MSTORE CALLVALUE DUP1 ISZERO PUSH2 0xF JUMPI PUSH0 DUP1 REVERT JUMPDEST POP PUSH1 0x4 CALLDATASIZE LT PUSH2 0x114 JUMPI PUSH0 CALLDATALOAD PUSH1 0xE0 SHR DUP1 PUSH4 0x9E7A13AD GT PUSH2 0xA0 JUMPI DUP1 PUSH4 0xB6339418 GT PUSH2 0x6F JUMPI DUP1 PUSH4 0xB6339418 EQ PUSH2 0x2E1 JUMPI DUP1 PUSH4 0xBCA353BE EQ PUSH2 0x2FD JUMPI DUP1 PUSH4 0xC19D93FB EQ PUSH2 0x307 JUMPI DUP1 PUSH4 0xCB6A33F8 EQ PUSH2 0x325 JUMPI DUP1 PUSH4 0xE0819C9A EQ PUSH2 0x355 JUMPI PUSH2 0x114 JUMP JUMPDEST DUP1 PUSH4 0x9E7A13AD EQ PUSH2 0x246 JUMPI DUP1 PUSH4 0xA621D15E EQ PUSH2 0x277 JUMPI DUP1 PUSH4 0xA7E1A364 EQ PUSH2 0x295 JUMPI DUP1 PUSH4 0xB39E12B5 EQ PUSH2 0x2B1 JUMPI PUSH2 0x114 JUMP JUMPDEST DUP1 PUSH4 0x3A32B549 GT PUSH2 0xE7 JUMPI DUP1 PUSH4 0x3A32B549 EQ PUSH2 0x1B4 JUMPI DUP1 PUSH4 0x6F760F41 EQ PUSH2 0x1D2 JUMPI DUP1 PUSH4 0x8701F8CA EQ PUSH2 0x1EE JUMPI DUP1 PUSH4 0x8BAB8DD5 EQ PUSH2 0x20C JUMPI DUP1 PUSH4 0x8FDA356D EQ PUSH2 0x23C JUMPI PUSH2 0x114 JUMP JUMPDEST DUP1 PUSH4 0xCD2636E EQ PUSH2 0x118 JUMPI DUP1 PUSH4 0x1DB05A88 EQ PUSH2 0x136 JUMPI DUP1 PUSH4 0x22F3E2D4 EQ PUSH2 0x166 JUMPI DUP1 PUSH4 0x29CD1D96 EQ PUSH2 0x184 JUMPI JUMPDEST PUSH0 DUP1 REVERT JUMPDEST PUSH2 0x120 PUSH2 0x373 JUMP JUMPDEST PUSH1 0x40 MLOAD PUSH2 0x12D SWAP2 SWAP1 PUSH2 0x75F JUMP JUMPDEST PUSH1 0x40 MLOAD DUP1 SWAP2 SUB SWAP1 RETURN JUMPDEST PUSH2 0x150 PUSH1 0x4 DUP1 CALLDATASIZE SUB DUP2 ADD SWAP1 PUSH2 0x14B SWAP2 SWAP1 PUSH2 0x7B3 JUMP JUMPDEST PUSH2 0x3AF JUMP JUMPDEST PUSH1 0x40 MLOAD PUSH2 0x15D SWAP2 SWAP1 PUSH2 0x75F JUMP JUMPDEST PUSH1 0x40 MLOAD DUP1 SWAP2 SUB SWAP1 RETURN JUMPDEST PUSH2 0x16E PUSH2 0x3C9 JUMP JUMPDEST PUSH1 0x40 MLOAD PUSH2 0x17B SWAP2 SWAP1 PUSH2 0x7F8 JUMP JUMPDEST PUSH1 0x40 MLOAD DUP1 SWAP2 SUB SWAP1 RETURN JUMPDEST PUSH2 0x19E PUSH1 0x4 DUP1 CALLDATASIZE SUB DUP2 ADD SWAP1 PUSH2 0x199 SWAP2 SWAP1 PUSH2 0x7B3 JUMP JUMPDEST PUSH2 0x404 JUMP JUMPDEST PUSH1 0x40 MLOAD PUSH2 0x1AB SWAP2 SWAP1 PUSH2 0x75F JUMP JUMPDEST PUSH1 0x40 MLOAD DUP1 SWAP2 SUB SWAP1 RETURN JUMPDEST PUSH2 0x1BC PUSH2 0x424 JUMP JUMPDEST PUSH1 0x40 MLOAD PUSH2 0x1C9 SWAP2 SWAP1 PUSH2 0x881 JUMP JUMPDEST PUSH1 0x40 MLOAD DUP1 SWAP2 SUB SWAP1 RETURN JUMPDEST PUSH2 0x1EC PUSH1 0x4 DUP1 CALLDATASIZE SUB DUP2 ADD SWAP1 PUSH2 0x1E7 SWAP2 SWAP1 PUSH2 0x9CD JUMP JUMPDEST PUSH2 0x461 JUMP JUMPDEST STOP JUMPDEST PUSH2 0x1F6 PUSH2 0x488 JUMP JUMPDEST PUSH1 0x40 MLOAD PUSH2 0x203 SWAP2 SWAP1 PUSH2 0x881 JUMP JUMPDEST PUSH1 0x40 MLOAD DUP1 SWAP2 SUB SWAP1 RETURN JUMPDEST PUSH2 0x226 PUSH1 0x4 DUP1 CALLDATASIZE SUB DUP2 ADD SWAP1 PUSH2 0x221 SWAP2 SWAP1 PUSH2 0xA27 JUMP JUMPDEST PUSH2 0x497 JUMP JUMPDEST PUSH1 0x40 MLOAD PUSH2 0x233 SWAP2 SWAP1 PUSH2 0x75F JUMP JUMPDEST PUSH1 0x40 MLOAD DUP1 SWAP2 SUB SWAP1 RETURN JUMPDEST PUSH2 0x244 PUSH2 0x4C4 JUMP JUMPDEST STOP JUMPDEST PUSH2 0x260 PUSH1 0x4 DUP1 CALLDATASIZE SUB DUP2 ADD SWAP1 PUSH2 0x25B SWAP2 SWAP1 PUSH2 0x7B3 JUMP JUMPDEST PUSH2 0x4EF JUMP JUMPDEST PUSH1 0x40 MLOAD PUSH2 0x26E SWAP3 SWAP2 SWAP1 PUSH2 0xA6E JUMP JUMPDEST PUSH1 0x40 MLOAD DUP1 SWAP2 SUB SWAP1 RETURN JUMPDEST PUSH2 0x27F PUSH2 0x5A4 JUMP JUMPDEST PUSH1 0x40 MLOAD PUSH2 0x28C SWAP2 SWAP1 PUSH2 0x75F JUMP JUMPDEST PUSH1 0x40 MLOAD DUP1 SWAP2 SUB SWAP1 RETURN JUMPDEST PUSH2 0x2AF PUSH1 0x4 DUP1 CALLDATASIZE SUB DUP2 ADD SWAP1 PUSH2 0x2AA SWAP2 SWAP1 PUSH2 0x7B3 JUMP JUMPDEST PUSH2 0x5AC JUMP JUMPDEST STOP JUMPDEST PUSH2 0x2CB PUSH1 0x4 DUP1 CALLDATASIZE SUB DUP2 ADD SWAP1 PUSH2 0x2C6 SWAP2 SWAP1 PUSH2 0xAF9 JUMP JUMPDEST PUSH2 0x5D5 JUMP JUMPDEST PUSH1 0x40 MLOAD PUSH2 0x2D8 SWAP2 SWAP1 PUSH2 0x881 JUMP JUMPDEST PUSH1 0x40 MLOAD DUP1 SWAP2 SUB SWAP1 RETURN JUMPDEST PUSH2 0x2FB PUSH1 0x4 DUP1 CALLDATASIZE SUB DUP2 ADD SWAP1 PUSH2 0x2F6 SWAP2 SWAP1 PUSH2 0x7B3 JUMP JUMPDEST PUSH2 0x606 JUMP JUMPDEST STOP JUMPDEST PUSH2 0x305 PUSH2 0x649 JUMP JUMPDEST STOP JUMPDEST PUSH2 0x30F PUSH2 0x675 JUMP JUMPDEST PUSH1 0x40 MLOAD PUSH2 0x31C SWAP2 SWAP1 PUSH2 0xBB7 JUMP JUMPDEST PUSH1 0x40 MLOAD DUP1 SWAP2 SUB SWAP1 RETURN JUMPDEST PUSH2 0x33F PUSH1 0x4 DUP1 CALLDATASIZE SUB DUP2 ADD SWAP1 PUSH2 0x33A SWAP2 SWAP1 PUSH2 0x7B3 JUMP JUMPDEST PUSH2 0x687 JUMP JUMPDEST PUSH1 0x40 MLOAD PUSH2 0x34C SWAP2 SWAP1 PUSH2 0x7F8 JUMP JUMPDEST PUSH1 0x40 MLOAD DUP1 SWAP2 SUB SWAP1 RETURN JUMPDEST PUSH2 0x35D PUSH2 0x693 JUMP JUMPDEST PUSH1 0x40 MLOAD PUSH2 0x36A SWAP2 SWAP1 PUSH2 0x881 JUMP JUMPDEST PUSH1 0x40 MLOAD DUP1 SWAP2 SUB SWAP1 RETURN JUMPDEST PUSH0 DUP1 PUSH0 SWAP1 POP PUSH0 PUSH1 0x1 SWAP1 POP JUMPDEST PUSH0 SLOAD DUP2 GT PUSH2 0x3A7 JUMPI DUP1 DUP3 PUSH2 0x392 SWAP2 SWAP1 PUSH2 0xBFD JUMP JUMPDEST SWAP2 POP DUP1 DUP1 PUSH2 0x39F SWAP1 PUSH2 0xC30 JUMP JUMPDEST SWAP2 POP POP PUSH2 0x37E JUMP JUMPDEST POP DUP1 SWAP2 POP POP SWAP1 JUMP JUMPDEST PUSH0 DUP1 PUSH1 0x5 DUP4 PUSH2 0x3BE SWAP2 SWAP1 PUSH2 0xBFD JUMP JUMPDEST SWAP1 POP DUP1 SWAP2 POP POP SWAP2 SWAP1 POP JUMP JUMPDEST PUSH0 DUP1 PUSH1 0x1 DUP2 GT ISZERO PUSH2 0x3DD JUMPI PUSH2 0x3DC PUSH2 0xB44 JUMP JUMPDEST JUMPDEST PUSH1 0x3 PUSH0 SWAP1 SLOAD SWAP1 PUSH2 0x100 EXP SWAP1 DIV PUSH1 0xFF AND PUSH1 0x1 DUP2 GT ISZERO PUSH2 0x3FE JUMPI PUSH2 0x3FD PUSH2 0xB44 JUMP JUMPDEST JUMPDEST EQ SWAP1 POP SWAP1 JUMP JUMPDEST PUSH1 0x1 DUP2 DUP2 SLOAD DUP2 LT PUSH2 0x413 JUMPI PUSH0 DUP1 REVERT JUMPDEST SWAP1 PUSH0 MSTORE PUSH1 0x20 PUSH0 KECCAK256 ADD PUSH0 SWAP2 POP SWAP1 POP SLOAD DUP2 JUMP JUMPDEST PUSH1 0x60 PUSH1 0x40 MLOAD DUP1 PUSH1 0x40 ADD PUSH1 0x40 MSTORE DUP1 PUSH1 0x20 DUP2 MSTORE PUSH1 0x20 ADD PUSH32 0x486F706520796F752061726520686176696E6720612067726561742074696D65 DUP2 MSTORE POP SWAP1 POP SWAP1 JUMP JUMPDEST DUP1 PUSH1 0x4 DUP4 PUSH1 0x40 MLOAD PUSH2 0x472 SWAP2 SWAP1 PUSH2 0xCB1 JUMP JUMPDEST SWAP1 DUP2 MSTORE PUSH1 0x20 ADD PUSH1 0x40 MLOAD DUP1 SWAP2 SUB SWAP1 KECCAK256 DUP2 SWAP1 SSTORE POP POP POP JUMP JUMPDEST PUSH1 0x60 PUSH2 0x492 PUSH2 0x70A JUMP JUMPDEST SWAP1 POP SWAP1 JUMP JUMPDEST PUSH1 0x4 DUP2 DUP1 MLOAD PUSH1 0x20 DUP2 ADD DUP3 ADD DUP1 MLOAD DUP5 DUP3 MSTORE PUSH1 0x20 DUP4 ADD PUSH1 0x20 DUP6 ADD KECCAK256 DUP2 DUP4 MSTORE DUP1 SWAP6 POP POP POP POP POP POP PUSH0 SWAP2 POP SWAP1 POP SLOAD DUP2 JUMP JUMPDEST PUSH0 PUSH1 0x3 PUSH0 PUSH2 0x100 EXP DUP2 SLOAD DUP2 PUSH1 0xFF MUL NOT AND SWAP1 DUP4 PUSH1 0x1 DUP2 GT ISZERO PUSH2 0x4E8 JUMPI PUSH2 0x4E7 PUSH2 0xB44 JUMP JUMPDEST JUMPDEST MUL OR SWAP1 SSTORE POP JUMP JUMPDEST PUSH1 0x2 DUP2 DUP2 SLOAD DUP2 LT PUSH2 0x4FE JUMPI PUSH0 DUP1 REVERT JUMPDEST SWAP1 PUSH0 MSTORE PUSH1 0x20 PUSH0 KECCAK256 SWAP1 PUSH1 0x2 MUL ADD PUSH0 SWAP2 POP SWAP1 POP DUP1 PUSH0 ADD DUP1 SLOAD PUSH2 0x51D SWAP1 PUSH2 0xCF4 JUMP JUMPDEST DUP1 PUSH1 0x1F ADD PUSH1 0x20 DUP1 SWAP2 DIV MUL PUSH1 0x20 ADD PUSH1 0x40 MLOAD SWAP1 DUP2 ADD PUSH1 0x40 MSTORE DUP1 SWAP3 SWAP2 SWAP1 DUP2 DUP2 MSTORE PUSH1 0x20 ADD DUP3 DUP1 SLOAD PUSH2 0x549 SWAP1 PUSH2 0xCF4 JUMP JUMPDEST DUP1 ISZERO PUSH2 0x594 JUMPI DUP1 PUSH1 0x1F LT PUSH2 0x56B JUMPI PUSH2 0x100 DUP1 DUP4 SLOAD DIV MUL DUP4 MSTORE SWAP2 PUSH1 0x20 ADD SWAP2 PUSH2 0x594 JUMP JUMPDEST DUP3 ADD SWAP2 SWAP1 PUSH0 MSTORE PUSH1 0x20 PUSH0 KECCAK256 SWAP1 JUMPDEST DUP2 SLOAD DUP2 MSTORE SWAP1 PUSH1 0x1 ADD SWAP1 PUSH1 0x20 ADD DUP1 DUP4 GT PUSH2 0x577 JUMPI DUP3 SWAP1 SUB PUSH1 0x1F AND DUP3 ADD SWAP2 JUMPDEST POP POP POP POP POP SWAP1 DUP1 PUSH1 0x1 ADD SLOAD SWAP1 POP DUP3 JUMP JUMPDEST PUSH0 DUP1 SLOAD SWAP1 POP SWAP1 JUMP JUMPDEST PUSH1 0x1 DUP2 SWAP1 DUP1 PUSH1 0x1 DUP2 SLOAD ADD DUP1 DUP3 SSTORE DUP1 SWAP2 POP POP PUSH1 0x1 SWAP1 SUB SWAP1 PUSH0 MSTORE PUSH1 0x20 PUSH0 KECCAK256 ADD PUSH0 SWAP1 SWAP2 SWAP1 SWAP2 SWAP1 SWAP2 POP SSTORE POP JUMP JUMPDEST PUSH1 0x60 PUSH0 DUP4 DUP4 PUSH1 0x40 MLOAD PUSH1 0x20 ADD PUSH2 0x5EB SWAP3 SWAP2 SWAP1 PUSH2 0xD92 JUMP JUMPDEST PUSH1 0x40 MLOAD PUSH1 0x20 DUP2 DUP4 SUB SUB DUP2 MSTORE SWAP1 PUSH1 0x40 MSTORE SWAP1 POP DUP1 SWAP2 POP POP SWAP3 SWAP2 POP POP JUMP JUMPDEST DUP1 PUSH0 DUP2 SWAP1 SSTORE POP PUSH32 0xE5F28171F43FC54876F02589C23CC70D19E06F868CC3811C456E8C61C296A27E PUSH0 SLOAD CALLER PUSH1 0x40 MLOAD PUSH2 0x63E SWAP3 SWAP2 SWAP1 PUSH2 0xDF4 JUMP JUMPDEST PUSH1 0x40 MLOAD DUP1 SWAP2 SUB SWAP1 LOG1 POP JUMP JUMPDEST PUSH1 0x1 PUSH1 0x3 PUSH0 PUSH2 0x100 EXP DUP2 SLOAD DUP2 PUSH1 0xFF MUL NOT AND SWAP1 DUP4 PUSH1 0x1 DUP2 GT ISZERO PUSH2 0x66E JUMPI PUSH2 0x66D PUSH2 0xB44 JUMP JUMPDEST JUMPDEST MUL OR SWAP1 SSTORE POP JUMP JUMPDEST PUSH1 0x3 PUSH0 SWAP1 SLOAD SWAP1 PUSH2 0x100 EXP SWAP1 DIV PUSH1 0xFF AND DUP2 JUMP JUMPDEST PUSH0 DUP2 PUSH0 SLOAD GT SWAP1 POP SWAP2 SWAP1 POP JUMP JUMPDEST PUSH1 0x60 ADDRESS PUSH20 0xFFFFFFFFFFFFFFFFFFFFFFFFFFFFFFFFFFFFFFFF AND PUSH4 0x3A32B549 PUSH1 0x40 MLOAD DUP2 PUSH4 0xFFFFFFFF AND PUSH1 0xE0 SHL DUP2 MSTORE PUSH1 0x4 ADD PUSH0 PUSH1 0x40 MLOAD DUP1 DUP4 SUB DUP2 DUP7 GAS STATICCALL ISZERO DUP1 ISZERO PUSH2 0x6DD JUMPI RETURNDATASIZE PUSH0 DUP1 RETURNDATACOPY RETURNDATASIZE PUSH0 REVERT JUMPDEST POP POP POP POP PUSH1 0x40 MLOAD RETURNDATASIZE PUSH0 DUP3 RETURNDATACOPY RETURNDATASIZE PUSH1 0x1F NOT PUSH1 0x1F DUP3 ADD AND DUP3 ADD DUP1 PUSH1 0x40 MSTORE POP DUP2 ADD SWAP1 PUSH2 0x705 SWAP2 SWAP1 PUSH2 0xE89 JUMP JUMPDEST SWAP1 POP SWAP1 JUMP JUMPDEST PUSH1 0x60 PUSH1 0x40 MLOAD DUP1 PUSH1 0x40 ADD PUSH1 0x40 MSTORE DUP1 PUSH1 0xE DUP2 MSTORE PUSH1 0x20 ADD PUSH32 0x596F7527726520617765736F6D65000000000000000000000000000000000000 DUP2 MSTORE POP SWAP1 POP SWAP1 JUMP JUMPDEST PUSH0 DUP2 SWAP1 POP SWAP2 SWAP1 POP JUMP JUMPDEST PUSH2 0x759 DUP2 PUSH2 0x747 JUMP JUMPDEST DUP3 MSTORE POP POP JUMP JUMPDEST PUSH0 PUSH1 0x20 DUP3 ADD SWAP1 POP PUSH2 0x772 PUSH0 DUP4 ADD DUP5 PUSH2 0x750 JUMP JUMPDEST SWAP3 SWAP2 POP POP JUMP JUMPDEST PUSH0 PUSH1 0x40 MLOAD SWAP1 POP SWAP1 JUMP JUMPDEST PUSH0 DUP1 REVERT JUMPDEST PUSH0 DUP1 REVERT JUMPDEST PUSH2 0x792 DUP2 PUSH2 0x747 JUMP JUMPDEST DUP2 EQ PUSH2 0x79C JUMPI PUSH0 DUP1 REVERT JUMPDEST POP JUMP JUMPDEST PUSH0 DUP2 CALLDATALOAD SWAP1 POP PUSH2 0x7AD DUP2 PUSH2 0x789 JUMP JUMPDEST SWAP3 SWAP2 POP POP JUMP JUMPDEST PUSH0 PUSH1 0x20 DUP3 DUP5 SUB SLT ISZERO PUSH2 0x7C8 JUMPI PUSH2 0x7C7 PUSH2 0x781 JUMP JUMPDEST JUMPDEST PUSH0 PUSH2 0x7D5 DUP5 DUP3 DUP6 ADD PUSH2 0x79F JUMP JUMPDEST SWAP2 POP POP SWAP3 SWAP2 POP POP JUMP JUMPDEST PUSH0 DUP2 ISZERO ISZERO SWAP1 POP SWAP2 SWAP1 POP JUMP JUMPDEST PUSH2 0x7F2 DUP2 PUSH2 0x7DE JUMP JUMPDEST DUP3 MSTORE POP POP JUMP JUMPDEST PUSH0 PUSH1 0x20 DUP3 ADD SWAP1 POP PUSH2 0x80B PUSH0 DUP4 ADD DUP5 PUSH2 0x7E9 JUMP JUMPDEST SWAP3 SWAP2 POP POP JUMP JUMPDEST PUSH0 DUP2 MLOAD SWAP1 POP SWAP2 SWAP1 POP JUMP JUMPDEST PUSH0 DUP3 DUP3 MSTORE PUSH1 0x20 DUP3 ADD SWAP1 POP SWAP3 SWAP2 POP POP JUMP JUMPDEST DUP3 DUP2 DUP4 MCOPY PUSH0 DUP4 DUP4 ADD MSTORE POP POP POP JUMP JUMPDEST PUSH0 PUSH1 0x1F NOT PUSH1 0x1F DUP4 ADD AND SWAP1 POP SWAP2 SWAP1 POP JUMP JUMPDEST PUSH0 PUSH2 0x853 DUP3 PUSH2 0x811 JUMP JUMPDEST PUSH2 0x85D DUP2 DUP6 PUSH2 0x81B JUMP JUMPDEST SWAP4 POP PUSH2 0x86D DUP2 DUP6 PUSH1 0x20 DUP7 ADD PUSH2 0x82B JUMP JUMPDEST PUSH2 0x876 DUP2 PUSH2 0x839 JUMP JUMPDEST DUP5 ADD SWAP2 POP POP SWAP3 SWAP2 POP POP JUMP JUMPDEST PUSH0 PUSH1 0x20 DUP3 ADD SWAP1 POP DUP2 DUP2 SUB PUSH0 DUP4 ADD MSTORE PUSH2 0x899 DUP2 DUP5 PUSH2 0x849 JUMP JUMPDEST SWAP1 POP SWAP3 SWAP2 POP POP JUMP JUMPDEST PUSH0 DUP1 REVERT JUMPDEST PUSH0 DUP1 REVERT JUMPDEST PUSH32 0x4E487B7100000000000000000000000000000000000000000000000000000000 PUSH0 MSTORE PUSH1 0x41 PUSH1 0x4 MSTORE PUSH1 0x24 PUSH0 REVERT JUMPDEST PUSH2 0x8DF DUP3 PUSH2 0x839 JUMP JUMPDEST DUP2 ADD DUP2 DUP2 LT PUSH8 0xFFFFFFFFFFFFFFFF DUP3 GT OR ISZERO PUSH2 0x8FE JUMPI PUSH2 0x8FD PUSH2 0x8A9 JUMP JUMPDEST JUMPDEST DUP1 PUSH1 0x40 MSTORE POP POP POP JUMP JUMPDEST PUSH0 PUSH2 0x910 PUSH2 0x778 JUMP JUMPDEST SWAP1 POP PUSH2 0x91C DUP3 DUP3 PUSH2 0x8D6 JUMP JUMPDEST SWAP2 SWAP1 POP JUMP JUMPDEST PUSH0 PUSH8 0xFFFFFFFFFFFFFFFF DUP3 GT ISZERO PUSH2 0x93B JUMPI PUSH2 0x93A PUSH2 0x8A9 JUMP JUMPDEST JUMPDEST PUSH2 0x944 DUP3 PUSH2 0x839 JUMP JUMPDEST SWAP1 POP PUSH1 0x20 DUP2 ADD SWAP1 POP SWAP2 SWAP1 POP JUMP JUMPDEST DUP3 DUP2 DUP4 CALLDATACOPY PUSH0 DUP4 DUP4 ADD MSTORE POP POP POP JUMP JUMPDEST PUSH0 PUSH2 0x971 PUSH2 0x96C DUP5 PUSH2 0x921 JUMP JUMPDEST PUSH2 0x907 JUMP JUMPDEST SWAP1 POP DUP3 DUP2 MSTORE PUSH1 0x20 DUP2 ADD DUP5 DUP5 DUP5 ADD GT ISZERO PUSH2 0x98D JUMPI PUSH2 0x98C PUSH2 0x8A5 JUMP JUMPDEST JUMPDEST PUSH2 0x998 DUP5 DUP3 DUP6 PUSH2 0x951 JUMP JUMPDEST POP SWAP4 SWAP3 POP POP POP JUMP JUMPDEST PUSH0 DUP3 PUSH1 0x1F DUP4 ADD SLT PUSH2 0x9B4 JUMPI PUSH2 0x9B3 PUSH2 0x8A1 JUMP JUMPDEST JUMPDEST DUP2 CALLDATALOAD PUSH2 0x9C4 DUP5 DUP3 PUSH1 0x20 DUP7 ADD PUSH2 0x95F JUMP JUMPDEST SWAP2 POP POP SWAP3 SWAP2 POP POP JUMP JUMPDEST PUSH0 DUP1 PUSH1 0x40 DUP4 DUP6 SUB SLT ISZERO PUSH2 0x9E3 JUMPI PUSH2 0x9E2 PUSH2 0x781 JUMP JUMPDEST JUMPDEST PUSH0 DUP4 ADD CALLDATALOAD PUSH8 0xFFFFFFFFFFFFFFFF DUP2 GT ISZERO PUSH2 0xA00 JUMPI PUSH2 0x9FF PUSH2 0x785 JUMP JUMPDEST JUMPDEST PUSH2 0xA0C DUP6 DUP3 DUP7 ADD PUSH2 0x9A0 JUMP JUMPDEST SWAP3 POP POP PUSH1 0x20 PUSH2 0xA1D DUP6 DUP3 DUP7 ADD PUSH2 0x79F JUMP JUMPDEST SWAP2 POP POP SWAP3 POP SWAP3 SWAP1 POP JUMP JUMPDEST PUSH0 PUSH1 0x20 DUP3 DUP5 SUB SLT ISZERO PUSH2 0xA3C JUMPI PUSH2 0xA3B PUSH2 0x781 JUMP JUMPDEST JUMPDEST PUSH0 DUP3 ADD CALLDATALOAD PUSH8 0xFFFFFFFFFFFFFFFF DUP2 GT ISZERO PUSH2 0xA59 JUMPI PUSH2 0xA58 PUSH2 0x785 JUMP JUMPDEST JUMPDEST PUSH2 0xA65 DUP5 DUP3 DUP6 ADD PUSH2 0x9A0 JUMP JUMPDEST SWAP2 POP POP SWAP3 SWAP2 POP POP JUMP JUMPDEST PUSH0 PUSH1 0x40 DUP3 ADD SWAP1 POP DUP2 DUP2 SUB PUSH0 DUP4 ADD MSTORE PUSH2 0xA86 DUP2 DUP6 PUSH2 0x849 JUMP JUMPDEST SWAP1 POP PUSH2 0xA95 PUSH1 0x20 DUP4 ADD DUP5 PUSH2 0x750 JUMP JUMPDEST SWAP4 SWAP3 POP POP POP JUMP JUMPDEST PUSH0 DUP1 REVERT JUMPDEST PUSH0 DUP1 REVERT JUMPDEST PUSH0 DUP1 DUP4 PUSH1 0x1F DUP5 ADD SLT PUSH2 0xAB9 JUMPI PUSH2 0xAB8 PUSH2 0x8A1 JUMP JUMPDEST JUMPDEST DUP3 CALLDATALOAD SWAP1 POP PUSH8 0xFFFFFFFFFFFFFFFF DUP2 GT ISZERO PUSH2 0xAD6 JUMPI PUSH2 0xAD5 PUSH2 0xA9C JUMP JUMPDEST JUMPDEST PUSH1 0x20 DUP4 ADD SWAP2 POP DUP4 PUSH1 0x1 DUP3 MUL DUP4 ADD GT ISZERO PUSH2 0xAF2 JUMPI PUSH2 0xAF1 PUSH2 0xAA0 JUMP JUMPDEST JUMPDEST SWAP3 POP SWAP3 SWAP1 POP JUMP JUMPDEST PUSH0 DUP1 PUSH1 0x20 DUP4 DUP6 SUB SLT ISZERO PUSH2 0xB0F JUMPI PUSH2 0xB0E PUSH2 0x781 JUMP JUMPDEST JUMPDEST PUSH0 DUP4 ADD CALLDATALOAD PUSH8 0xFFFFFFFFFFFFFFFF DUP2 GT ISZERO PUSH2 0xB2C JUMPI PUSH2 0xB2B PUSH2 0x785 JUMP JUMPDEST JUMPDEST PUSH2 0xB38 DUP6 DUP3 DUP7 ADD PUSH2 0xAA4 JUMP JUMPDEST SWAP3 POP SWAP3 POP POP SWAP3 POP SWAP3 SWAP1 POP JUMP JUMPDEST PUSH32 0x4E487B7100000000000000000000000000000000000000000000000000000000 PUSH0 MSTORE PUSH1 0x21 PUSH1 0x4 MSTORE PUSH1 0x24 PUSH0 REVERT JUMPDEST PUSH1 0x2 DUP2 LT PUSH2 0xB82 JUMPI PUSH2 0xB81 PUSH2 0xB44 JUMP JUMPDEST JUMPDEST POP JUMP JUMPDEST PUSH0 DUP2 SWAP1 POP PUSH2 0xB92 DUP3 PUSH2 0xB71 JUMP JUMPDEST SWAP2 SWAP1 POP JUMP JUMPDEST PUSH0 PUSH2 0xBA1 DUP3 PUSH2 0xB85 JUMP JUMPDEST SWAP1 POP SWAP2 SWAP1 POP JUMP JUMPDEST PUSH2 0xBB1 DUP2 PUSH2 0xB97 JUMP JUMPDEST DUP3 MSTORE POP POP JUMP JUMPDEST PUSH0 PUSH1 0x20 DUP3 ADD SWAP1 POP PUSH2 0xBCA PUSH0 DUP4 ADD DUP5 PUSH2 0xBA8 JUMP JUMPDEST SWAP3 SWAP2 POP POP JUMP JUMPDEST PUSH32 0x4E487B7100000000000000000000000000000000000000000000000000000000 PUSH0 MSTORE PUSH1 0x11 PUSH1 0x4 MSTORE PUSH1 0x24 PUSH0 REVERT JUMPDEST PUSH0 PUSH2 0xC07 DUP3 PUSH2 0x747 JUMP JUMPDEST SWAP2 POP PUSH2 0xC12 DUP4 PUSH2 0x747 JUMP JUMPDEST SWAP3 POP DUP3 DUP3 ADD SWAP1 POP DUP1 DUP3 GT ISZERO PUSH2 0xC2A JUMPI PUSH2 0xC29 PUSH2 0xBD0 JUMP JUMPDEST JUMPDEST SWAP3 SWAP2 POP POP JUMP JUMPDEST PUSH0 PUSH2 0xC3A DUP3 PUSH2 0x747 JUMP JUMPDEST SWAP2 POP PUSH32 0xFFFFFFFFFFFFFFFFFFFFFFFFFFFFFFFFFFFFFFFFFFFFFFFFFFFFFFFFFFFFFFFF DUP3 SUB PUSH2 0xC6C JUMPI PUSH2 0xC6B PUSH2 0xBD0 JUMP JUMPDEST JUMPDEST PUSH1 0x1 DUP3 ADD SWAP1 POP SWAP2 SWAP1 POP JUMP JUMPDEST PUSH0 DUP2 SWAP1 POP SWAP3 SWAP2 POP POP JUMP JUMPDEST PUSH0 PUSH2 0xC8B DUP3 PUSH2 0x811 JUMP JUMPDEST PUSH2 0xC95 DUP2 DUP6 PUSH2 0xC77 JUMP JUMPDEST SWAP4 POP PUSH2 0xCA5 DUP2 DUP6 PUSH1 0x20 DUP7 ADD PUSH2 0x82B JUMP JUMPDEST DUP1 DUP5 ADD SWAP2 POP POP SWAP3 SWAP2 POP POP JUMP JUMPDEST PUSH0 PUSH2 0xCBC DUP3 DUP5 PUSH2 0xC81 JUMP JUMPDEST SWAP2 POP DUP2 SWAP1 POP SWAP3 SWAP2 POP POP JUMP JUMPDEST PUSH32 0x4E487B7100000000000000000000000000000000000000000000000000000000 PUSH0 MSTORE PUSH1 0x22 PUSH1 0x4 MSTORE PUSH1 0x24 PUSH0 REVERT JUMPDEST PUSH0 PUSH1 0x2 DUP3 DIV SWAP1 POP PUSH1 0x1 DUP3 AND DUP1 PUSH2 0xD0B JUMPI PUSH1 0x7F DUP3 AND SWAP2 POP JUMPDEST PUSH1 0x20 DUP3 LT DUP2 SUB PUSH2 0xD1E JUMPI PUSH2 0xD1D PUSH2 0xCC7 JUMP JUMPDEST JUMPDEST POP SWAP2 SWAP1 POP JUMP JUMPDEST PUSH0 PUSH2 0xD2F DUP4 DUP6 PUSH2 0xC77 JUMP JUMPDEST SWAP4 POP PUSH2 0xD3C DUP4 DUP6 DUP5 PUSH2 0x951 JUMP JUMPDEST DUP3 DUP5 ADD SWAP1 POP SWAP4 SWAP3 POP POP POP JUMP JUMPDEST PUSH32 0x20576F6F77210000000000000000000000000000000000000000000000000000 PUSH0 DUP3 ADD MSTORE POP JUMP JUMPDEST PUSH0 PUSH2 0xD7C PUSH1 0x6 DUP4 PUSH2 0xC77 JUMP JUMPDEST SWAP2 POP PUSH2 0xD87 DUP3 PUSH2 0xD48 JUMP JUMPDEST PUSH1 0x6 DUP3 ADD SWAP1 POP SWAP2 SWAP1 POP JUMP JUMPDEST PUSH0 PUSH2 0xD9E DUP3 DUP5 DUP7 PUSH2 0xD24 JUMP JUMPDEST SWAP2 POP PUSH2 0xDA9 DUP3 PUSH2 0xD70 JUMP JUMPDEST SWAP2 POP DUP2 SWAP1 POP SWAP4 SWAP3 POP POP POP JUMP JUMPDEST PUSH0 PUSH20 0xFFFFFFFFFFFFFFFFFFFFFFFFFFFFFFFFFFFFFFFF DUP3 AND SWAP1 POP SWAP2 SWAP1 POP JUMP JUMPDEST PUSH0 PUSH2 0xDDE DUP3 PUSH2 0xDB5 JUMP JUMPDEST SWAP1 POP SWAP2 SWAP1 POP JUMP JUMPDEST PUSH2 0xDEE DUP2 PUSH2 0xDD4 JUMP JUMPDEST DUP3 MSTORE POP POP JUMP JUMPDEST PUSH0 PUSH1 0x40 DUP3 ADD SWAP1 POP PUSH2 0xE07 PUSH0 DUP4 ADD DUP6 PUSH2 0x750 JUMP JUMPDEST PUSH2 0xE14 PUSH1 0x20 DUP4 ADD DUP5 PUSH2 0xDE5 JUMP JUMPDEST SWAP4 SWAP3 POP POP POP JUMP JUMPDEST PUSH0 PUSH2 0xE2D PUSH2 0xE28 DUP5 PUSH2 0x921 JUMP JUMPDEST PUSH2 0x907 JUMP JUMPDEST SWAP1 POP DUP3 DUP2 MSTORE PUSH1 0x20 DUP2 ADD DUP5 DUP5 DUP5 ADD GT ISZERO PUSH2 0xE49 JUMPI PUSH2 0xE48 PUSH2 0x8A5 JUMP JUMPDEST JUMPDEST PUSH2 0xE54 DUP5 DUP3 DUP6 PUSH2 0x82B JUMP JUMPDEST POP SWAP4 SWAP3 POP POP POP JUMP JUMPDEST PUSH0 DUP3 PUSH1 0x1F DUP4 ADD SLT PUSH2 0xE70 JUMPI PUSH2 0xE6F PUSH2 0x8A1 JUMP JUMPDEST JUMPDEST DUP2 MLOAD PUSH2 0xE80 DUP5 DUP3 PUSH1 0x20 DUP7 ADD PUSH2 0xE1B JUMP JUMPDEST SWAP2 POP POP SWAP3 SWAP2 POP POP JUMP JUMPDEST PUSH0 PUSH1 0x20 DUP3 DUP5 SUB SLT ISZERO PUSH2 0xE9E JUMPI PUSH2 0xE9D PUSH2 0x781 JUMP JUMPDEST JUMPDEST PUSH0 DUP3 ADD MLOAD PUSH8 0xFFFFFFFFFFFFFFFF DUP2 GT ISZERO PUSH2 0xEBB JUMPI PUSH2 0xEBA PUSH2 0x785 JUMP JUMPDEST JUMPDEST PUSH2 0xEC7 DUP5 DUP3 DUP6 ADD PUSH2 0xE5C JUMP JUMPDEST SWAP2 POP POP SWAP3 SWAP2 POP POP JUMP INVALID LOG2 PUSH5 0x6970667358 0x22 SLT KECCAK256 CHAINID PREVRANDAO 0xD7 SWAP12 0xD9 RETURN 0xC7 ORIGIN EXTCODECOPY 0x4C SWAP13 0x22 0xDA JUMPI 0xAF SWAP6 PUSH5 0x8AFE16FA13 GAS 0xA9 0xC0 STOP DUP1 0xE ADDMOD 0x2B 0x26 0x2D PUSH5 0x736F6C6343 STOP ADDMOD BYTE STOP CALLER "
				},
				"gasEstimates": {
					"creation": {
						"codeDepositCost": "769200",
						"executionCost": "803",
						"totalCost": "770003"
					},
					"external": {
						"activateContract()": "24539",
						"addFavoriteNumber(uint256)": "46888",
						"addPerson(string,uint256)": "infinite",
						"callInternalFunction()": "infinite",
						"concatenateString(string)": "infinite",
						"deactivateContract()": "24473",
						"externalFunction()": "infinite",
						"favoriteNumbers(uint256)": "infinite",
						"getFavoriteNumber()": "2477",
						"isActive()": "2599",
						"isGreaterThan(uint256)": "2792",
						"nameToFavoriteNumber(string)": "infinite",
						"people(uint256)": "infinite",
						"state()": "2620",
						"storeNumber(uint256)": "infinite",
						"sumToFavoriteNumber()": "infinite",
						"testExternalFunction()": "infinite",
						"updateNumber(uint256)": "infinite"
					},
					"internal": {
						"internalFuction()": "infinite"
					}
				},
				"methodIdentifiers": {
					"activateContract()": "8fda356d",
					"addFavoriteNumber(uint256)": "a7e1a364",
					"addPerson(string,uint256)": "6f760f41",
					"callInternalFunction()": "8701f8ca",
					"concatenateString(string)": "b39e12b5",
					"deactivateContract()": "bca353be",
					"externalFunction()": "3a32b549",
					"favoriteNumbers(uint256)": "29cd1d96",
					"getFavoriteNumber()": "a621d15e",
					"isActive()": "22f3e2d4",
					"isGreaterThan(uint256)": "cb6a33f8",
					"nameToFavoriteNumber(string)": "8bab8dd5",
					"people(uint256)": "9e7a13ad",
					"state()": "c19d93fb",
					"storeNumber(uint256)": "b6339418",
					"sumToFavoriteNumber()": "0cd2636e",
					"testExternalFunction()": "e0819c9a",
					"updateNumber(uint256)": "1db05a88"
				}
			},
			"storageLayout": {
				"storage": [
					{
						"astId": 3,
						"contract": "SimpleStorage.sol:SimpleStorage",
						"label": "favoriteNumber",
						"offset": 0,
						"slot": "0",
						"type": "t_uint256"
					},
					{
						"astId": 6,
						"contract": "SimpleStorage.sol:SimpleStorage",
						"label": "favoriteNumbers",
						"offset": 0,
						"slot": "1",
						"type": "t_array(t_uint256)dyn_storage"
					},
					{
						"astId": 15,
						"contract": "SimpleStorage.sol:SimpleStorage",
						"label": "people",
						"offset": 0,
						"slot": "2",
						"type": "t_array(t_struct(Person)11_storage)dyn_storage"
					},
					{
						"astId": 21,
						"contract": "SimpleStorage.sol:SimpleStorage",
						"label": "state",
						"offset": 0,
						"slot": "3",
						"type": "t_enum(ContractState)18"
					},
					{
						"astId": 179,
						"contract": "SimpleStorage.sol:SimpleStorage",
						"label": "nameToFavoriteNumber",
						"offset": 0,
						"slot": "4",
						"type": "t_mapping(t_string_memory_ptr,t_uint256)"
					}
				],
				"types": {
					"t_array(t_struct(Person)11_storage)dyn_storage": {
						"base": "t_struct(Person)11_storage",
						"encoding": "dynamic_array",
						"label": "struct SimpleStorage.Person[]",
						"numberOfBytes": "32"
					},
					"t_array(t_uint256)dyn_storage": {
						"base": "t_uint256",
						"encoding": "dynamic_array",
						"label": "uint256[]",
						"numberOfBytes": "32"
					},
					"t_enum(ContractState)18": {
						"encoding": "inplace",
						"label": "enum SimpleStorage.ContractState",
						"numberOfBytes": "1"
					},
					"t_mapping(t_string_memory_ptr,t_uint256)": {
						"encoding": "mapping",
						"key": "t_string_memory_ptr",
						"label": "mapping(string => uint256)",
						"numberOfBytes": "32",
						"value": "t_uint256"
					},
					"t_string_memory_ptr": {
						"encoding": "bytes",
						"label": "string",
						"numberOfBytes": "32"
					},
					"t_string_storage": {
						"encoding": "bytes",
						"label": "string",
						"numberOfBytes": "32"
					},
					"t_struct(Person)11_storage": {
						"encoding": "inplace",
						"label": "struct SimpleStorage.Person",
						"members": [
							{
								"astId": 8,
								"contract": "SimpleStorage.sol:SimpleStorage",
								"label": "name",
								"offset": 0,
								"slot": "0",
								"type": "t_string_storage"
							},
							{
								"astId": 10,
								"contract": "SimpleStorage.sol:SimpleStorage",
								"label": "favoriteNumber",
								"offset": 0,
								"slot": "1",
								"type": "t_uint256"
							}
						],
						"numberOfBytes": "64"
					},
					"t_uint256": {
						"encoding": "inplace",
						"label": "uint256",
						"numberOfBytes": "32"
					}
				}
			},
			"userdoc": {
				"kind": "user",
				"methods": {},
				"version": 1
			}
		}
	}
}