{
	"data": {
		"bytecode": {
			"linkReferences": {},
			"object": "6080604052348015600e575f80fd5b50610e138061001c5f395ff3fe608060405234801561000f575f80fd5b50600436106100f3575f3560e01c80639e7a13ad11610095578063bca353be11610064578063bca353be1461024c578063c19d93fb14610256578063cb6a33f814610274578063e0819c9a146102a4576100f3565b80639e7a13ad146101c5578063a621d15e146101f6578063a7e1a36414610214578063b633941814610230576100f3565b80633a32b549116100d15780633a32b549146101635780636f760f41146101815780638701f8ca1461019d5780638fda356d146101bb576100f3565b80630cd2636e146100f757806322f3e2d41461011557806329cd1d9614610133575b5f80fd5b6100ff6102c2565b60405161010c9190610636565b60405180910390f35b61011d6102fe565b60405161012a9190610669565b60405180910390f35b61014d600480360381019061014891906106bd565b610339565b60405161015a9190610636565b60405180910390f35b61016b610359565b6040516101789190610758565b60405180910390f35b61019b600480360381019061019691906108a4565b610396565b005b6101a56103f7565b6040516101b29190610758565b60405180910390f35b6101c3610406565b005b6101df60048036038101906101da91906106bd565b610431565b6040516101ed9291906108fe565b60405180910390f35b6101fe6104e6565b60405161020b9190610636565b60405180910390f35b61022e600480360381019061022991906106bd565b6104ee565b005b61024a600480360381019061024591906106bd565b610517565b005b610254610520565b005b61025e61054c565b60405161026b919061099f565b60405180910390f35b61028e600480360381019061028991906106bd565b61055e565b60405161029b9190610669565b60405180910390f35b6102ac61056a565b6040516102b99190610758565b60405180910390f35b5f805f90505f600190505b5f5481116102f65780826102e191906109e5565b915080806102ee90610a18565b9150506102cd565b508091505090565b5f8060018111156103125761031161092c565b5b60035f9054906101000a900460ff1660018111156103335761033261092c565b5b14905090565b60018181548110610348575f80fd5b905f5260205f20015f915090505481565b60606040518060400160405280602081526020017f486f706520796f752061726520686176696e6720612067726561742074696d65815250905090565b6002604051806040016040528084815260200183815250908060018154018082558091505060019003905f5260205f2090600202015f909190919091505f820151815f0190816103e69190610c59565b506020820151816001015550505050565b60606104016105e1565b905090565b5f60035f6101000a81548160ff0219169083600181111561042a5761042961092c565b5b0217905550565b60028181548110610440575f80fd5b905f5260205f2090600202015f91509050805f01805461045f90610a8c565b80601f016020809104026020016040519081016040528092919081815260200182805461048b90610a8c565b80156104d65780601f106104ad576101008083540402835291602001916104d6565b820191905f5260205f20905b8154815290600101906020018083116104b957829003601f168201915b5050505050908060010154905082565b5f8054905090565b600181908060018154018082558091505060019003905f5260205f20015f909190919091505550565b805f8190555050565b600160035f6101000a81548160ff021916908360018111156105455761054461092c565b5b0217905550565b60035f9054906101000a900460ff1681565b5f815f54119050919050565b60603073ffffffffffffffffffffffffffffffffffffffff16633a32b5496040518163ffffffff1660e01b81526004015f60405180830381865afa1580156105b4573d5f803e3d5ffd5b505050506040513d5f823e3d601f19601f820116820180604052508101906105dc9190610d96565b905090565b60606040518060400160405280600e81526020017f596f7527726520617765736f6d65000000000000000000000000000000000000815250905090565b5f819050919050565b6106308161061e565b82525050565b5f6020820190506106495f830184610627565b92915050565b5f8115159050919050565b6106638161064f565b82525050565b5f60208201905061067c5f83018461065a565b92915050565b5f604051905090565b5f80fd5b5f80fd5b61069c8161061e565b81146106a6575f80fd5b50565b5f813590506106b781610693565b92915050565b5f602082840312156106d2576106d161068b565b5b5f6106df848285016106a9565b91505092915050565b5f81519050919050565b5f82825260208201905092915050565b8281835e5f83830152505050565b5f601f19601f8301169050919050565b5f61072a826106e8565b61073481856106f2565b9350610744818560208601610702565b61074d81610710565b840191505092915050565b5f6020820190508181035f8301526107708184610720565b905092915050565b5f80fd5b5f80fd5b7f4e487b71000000000000000000000000000000000000000000000000000000005f52604160045260245ffd5b6107b682610710565b810181811067ffffffffffffffff821117156107d5576107d4610780565b5b80604052505050565b5f6107e7610682565b90506107f382826107ad565b919050565b5f67ffffffffffffffff82111561081257610811610780565b5b61081b82610710565b9050602081019050919050565b828183375f83830152505050565b5f610848610843846107f8565b6107de565b9050828152602081018484840111156108645761086361077c565b5b61086f848285610828565b509392505050565b5f82601f83011261088b5761088a610778565b5b813561089b848260208601610836565b91505092915050565b5f80604083850312156108ba576108b961068b565b5b5f83013567ffffffffffffffff8111156108d7576108d661068f565b5b6108e385828601610877565b92505060206108f4858286016106a9565b9150509250929050565b5f6040820190508181035f8301526109168185610720565b90506109256020830184610627565b9392505050565b7f4e487b71000000000000000000000000000000000000000000000000000000005f52602160045260245ffd5b6002811061096a5761096961092c565b5b50565b5f81905061097a82610959565b919050565b5f6109898261096d565b9050919050565b6109998161097f565b82525050565b5f6020820190506109b25f830184610990565b92915050565b7f4e487b71000000000000000000000000000000000000000000000000000000005f52601160045260245ffd5b5f6109ef8261061e565b91506109fa8361061e565b9250828201905080821115610a1257610a116109b8565b5b92915050565b5f610a228261061e565b91507fffffffffffffffffffffffffffffffffffffffffffffffffffffffffffffffff8203610a5457610a536109b8565b5b600182019050919050565b7f4e487b71000000000000000000000000000000000000000000000000000000005f52602260045260245ffd5b5f6002820490506001821680610aa357607f821691505b602082108103610ab657610ab5610a5f565b5b50919050565b5f819050815f5260205f209050919050565b5f6020601f8301049050919050565b5f82821b905092915050565b5f60088302610b187fffffffffffffffffffffffffffffffffffffffffffffffffffffffffffffffff82610add565b610b228683610add565b95508019841693508086168417925050509392505050565b5f819050919050565b5f610b5d610b58610b538461061e565b610b3a565b61061e565b9050919050565b5f819050919050565b610b7683610b43565b610b8a610b8282610b64565b848454610ae9565b825550505050565b5f90565b610b9e610b92565b610ba9818484610b6d565b505050565b5b81811015610bcc57610bc15f82610b96565b600181019050610baf565b5050565b601f821115610c1157610be281610abc565b610beb84610ace565b81016020851015610bfa578190505b610c0e610c0685610ace565b830182610bae565b50505b505050565b5f82821c905092915050565b5f610c315f1984600802610c16565b1980831691505092915050565b5f610c498383610c22565b9150826002028217905092915050565b610c62826106e8565b67ffffffffffffffff811115610c7b57610c7a610780565b5b610c858254610a8c565b610c90828285610bd0565b5f60209050601f831160018114610cc1575f8415610caf578287015190505b610cb98582610c3e565b865550610d20565b601f198416610ccf86610abc565b5f5b82811015610cf657848901518255600182019150602085019450602081019050610cd1565b86831015610d135784890151610d0f601f891682610c22565b8355505b6001600288020188555050505b505050505050565b5f610d3a610d35846107f8565b6107de565b905082815260208101848484011115610d5657610d5561077c565b5b610d61848285610702565b509392505050565b5f82601f830112610d7d57610d7c610778565b5b8151610d8d848260208601610d28565b91505092915050565b5f60208284031215610dab57610daa61068b565b5b5f82015167ffffffffffffffff811115610dc857610dc761068f565b5b610dd484828501610d69565b9150509291505056fea264697066735822122077cf6676b36789716a535c6d536b22d1e71021246851c8d4e78a3b7245caf41664736f6c634300081a0033",
			"opcodes": "PUSH1 0x80 PUSH1 0x40 MSTORE CALLVALUE DUP1 ISZERO PUSH1 0xE JUMPI PUSH0 DUP1 REVERT JUMPDEST POP PUSH2 0xE13 DUP1 PUSH2 0x1C PUSH0 CODECOPY PUSH0 RETURN INVALID PUSH1 0x80 PUSH1 0x40 MSTORE CALLVALUE DUP1 ISZERO PUSH2 0xF JUMPI PUSH0 DUP1 REVERT JUMPDEST POP PUSH1 0x4 CALLDATASIZE LT PUSH2 0xF3 JUMPI PUSH0 CALLDATALOAD PUSH1 0xE0 SHR DUP1 PUSH4 0x9E7A13AD GT PUSH2 0x95 JUMPI DUP1 PUSH4 0xBCA353BE GT PUSH2 0x64 JUMPI DUP1 PUSH4 0xBCA353BE EQ PUSH2 0x24C JUMPI DUP1 PUSH4 0xC19D93FB EQ PUSH2 0x256 JUMPI DUP1 PUSH4 0xCB6A33F8 EQ PUSH2 0x274 JUMPI DUP1 PUSH4 0xE0819C9A EQ PUSH2 0x2A4 JUMPI PUSH2 0xF3 JUMP JUMPDEST DUP1 PUSH4 0x9E7A13AD EQ PUSH2 0x1C5 JUMPI DUP1 PUSH4 0xA621D15E EQ PUSH2 0x1F6 JUMPI DUP1 PUSH4 0xA7E1A364 EQ PUSH2 0x214 JUMPI DUP1 PUSH4 0xB6339418 EQ PUSH2 0x230 JUMPI PUSH2 0xF3 JUMP JUMPDEST DUP1 PUSH4 0x3A32B549 GT PUSH2 0xD1 JUMPI DUP1 PUSH4 0x3A32B549 EQ PUSH2 0x163 JUMPI DUP1 PUSH4 0x6F760F41 EQ PUSH2 0x181 JUMPI DUP1 PUSH4 0x8701F8CA EQ PUSH2 0x19D JUMPI DUP1 PUSH4 0x8FDA356D EQ PUSH2 0x1BB JUMPI PUSH2 0xF3 JUMP JUMPDEST DUP1 PUSH4 0xCD2636E EQ PUSH2 0xF7 JUMPI DUP1 PUSH4 0x22F3E2D4 EQ PUSH2 0x115 JUMPI DUP1 PUSH4 0x29CD1D96 EQ PUSH2 0x133 JUMPI JUMPDEST PUSH0 DUP1 REVERT JUMPDEST PUSH2 0xFF PUSH2 0x2C2 JUMP JUMPDEST PUSH1 0x40 MLOAD PUSH2 0x10C SWAP2 SWAP1 PUSH2 0x636 JUMP JUMPDEST PUSH1 0x40 MLOAD DUP1 SWAP2 SUB SWAP1 RETURN JUMPDEST PUSH2 0x11D PUSH2 0x2FE JUMP JUMPDEST PUSH1 0x40 MLOAD PUSH2 0x12A SWAP2 SWAP1 PUSH2 0x669 JUMP JUMPDEST PUSH1 0x40 MLOAD DUP1 SWAP2 SUB SWAP1 RETURN JUMPDEST PUSH2 0x14D PUSH1 0x4 DUP1 CALLDATASIZE SUB DUP2 ADD SWAP1 PUSH2 0x148 SWAP2 SWAP1 PUSH2 0x6BD JUMP JUMPDEST PUSH2 0x339 JUMP JUMPDEST PUSH1 0x40 MLOAD PUSH2 0x15A SWAP2 SWAP1 PUSH2 0x636 JUMP JUMPDEST PUSH1 0x40 MLOAD DUP1 SWAP2 SUB SWAP1 RETURN JUMPDEST PUSH2 0x16B PUSH2 0x359 JUMP JUMPDEST PUSH1 0x40 MLOAD PUSH2 0x178 SWAP2 SWAP1 PUSH2 0x758 JUMP JUMPDEST PUSH1 0x40 MLOAD DUP1 SWAP2 SUB SWAP1 RETURN JUMPDEST PUSH2 0x19B PUSH1 0x4 DUP1 CALLDATASIZE SUB DUP2 ADD SWAP1 PUSH2 0x196 SWAP2 SWAP1 PUSH2 0x8A4 JUMP JUMPDEST PUSH2 0x396 JUMP JUMPDEST STOP JUMPDEST PUSH2 0x1A5 PUSH2 0x3F7 JUMP JUMPDEST PUSH1 0x40 MLOAD PUSH2 0x1B2 SWAP2 SWAP1 PUSH2 0x758 JUMP JUMPDEST PUSH1 0x40 MLOAD DUP1 SWAP2 SUB SWAP1 RETURN JUMPDEST PUSH2 0x1C3 PUSH2 0x406 JUMP JUMPDEST STOP JUMPDEST PUSH2 0x1DF PUSH1 0x4 DUP1 CALLDATASIZE SUB DUP2 ADD SWAP1 PUSH2 0x1DA SWAP2 SWAP1 PUSH2 0x6BD JUMP JUMPDEST PUSH2 0x431 JUMP JUMPDEST PUSH1 0x40 MLOAD PUSH2 0x1ED SWAP3 SWAP2 SWAP1 PUSH2 0x8FE JUMP JUMPDEST PUSH1 0x40 MLOAD DUP1 SWAP2 SUB SWAP1 RETURN JUMPDEST PUSH2 0x1FE PUSH2 0x4E6 JUMP JUMPDEST PUSH1 0x40 MLOAD PUSH2 0x20B SWAP2 SWAP1 PUSH2 0x636 JUMP JUMPDEST PUSH1 0x40 MLOAD DUP1 SWAP2 SUB SWAP1 RETURN JUMPDEST PUSH2 0x22E PUSH1 0x4 DUP1 CALLDATASIZE SUB DUP2 ADD SWAP1 PUSH2 0x229 SWAP2 SWAP1 PUSH2 0x6BD JUMP JUMPDEST PUSH2 0x4EE JUMP JUMPDEST STOP JUMPDEST PUSH2 0x24A PUSH1 0x4 DUP1 CALLDATASIZE SUB DUP2 ADD SWAP1 PUSH2 0x245 SWAP2 SWAP1 PUSH2 0x6BD JUMP JUMPDEST PUSH2 0x517 JUMP JUMPDEST STOP JUMPDEST PUSH2 0x254 PUSH2 0x520 JUMP JUMPDEST STOP JUMPDEST PUSH2 0x25E PUSH2 0x54C JUMP JUMPDEST PUSH1 0x40 MLOAD PUSH2 0x26B SWAP2 SWAP1 PUSH2 0x99F JUMP JUMPDEST PUSH1 0x40 MLOAD DUP1 SWAP2 SUB SWAP1 RETURN JUMPDEST PUSH2 0x28E PUSH1 0x4 DUP1 CALLDATASIZE SUB DUP2 ADD SWAP1 PUSH2 0x289 SWAP2 SWAP1 PUSH2 0x6BD JUMP JUMPDEST PUSH2 0x55E JUMP JUMPDEST PUSH1 0x40 MLOAD PUSH2 0x29B SWAP2 SWAP1 PUSH2 0x669 JUMP JUMPDEST PUSH1 0x40 MLOAD DUP1 SWAP2 SUB SWAP1 RETURN JUMPDEST PUSH2 0x2AC PUSH2 0x56A JUMP JUMPDEST PUSH1 0x40 MLOAD PUSH2 0x2B9 SWAP2 SWAP1 PUSH2 0x758 JUMP JUMPDEST PUSH1 0x40 MLOAD DUP1 SWAP2 SUB SWAP1 RETURN JUMPDEST PUSH0 DUP1 PUSH0 SWAP1 POP PUSH0 PUSH1 0x1 SWAP1 POP JUMPDEST PUSH0 SLOAD DUP2 GT PUSH2 0x2F6 JUMPI DUP1 DUP3 PUSH2 0x2E1 SWAP2 SWAP1 PUSH2 0x9E5 JUMP JUMPDEST SWAP2 POP DUP1 DUP1 PUSH2 0x2EE SWAP1 PUSH2 0xA18 JUMP JUMPDEST SWAP2 POP POP PUSH2 0x2CD JUMP JUMPDEST POP DUP1 SWAP2 POP POP SWAP1 JUMP JUMPDEST PUSH0 DUP1 PUSH1 0x1 DUP2 GT ISZERO PUSH2 0x312 JUMPI PUSH2 0x311 PUSH2 0x92C JUMP JUMPDEST JUMPDEST PUSH1 0x3 PUSH0 SWAP1 SLOAD SWAP1 PUSH2 0x100 EXP SWAP1 DIV PUSH1 0xFF AND PUSH1 0x1 DUP2 GT ISZERO PUSH2 0x333 JUMPI PUSH2 0x332 PUSH2 0x92C JUMP JUMPDEST JUMPDEST EQ SWAP1 POP SWAP1 JUMP JUMPDEST PUSH1 0x1 DUP2 DUP2 SLOAD DUP2 LT PUSH2 0x348 JUMPI PUSH0 DUP1 REVERT JUMPDEST SWAP1 PUSH0 MSTORE PUSH1 0x20 PUSH0 KECCAK256 ADD PUSH0 SWAP2 POP SWAP1 POP SLOAD DUP2 JUMP JUMPDEST PUSH1 0x60 PUSH1 0x40 MLOAD DUP1 PUSH1 0x40 ADD PUSH1 0x40 MSTORE DUP1 PUSH1 0x20 DUP2 MSTORE PUSH1 0x20 ADD PUSH32 0x486F706520796F752061726520686176696E6720612067726561742074696D65 DUP2 MSTORE POP SWAP1 POP SWAP1 JUMP JUMPDEST PUSH1 0x2 PUSH1 0x40 MLOAD DUP1 PUSH1 0x40 ADD PUSH1 0x40 MSTORE DUP1 DUP5 DUP2 MSTORE PUSH1 0x20 ADD DUP4 DUP2 MSTORE POP SWAP1 DUP1 PUSH1 0x1 DUP2 SLOAD ADD DUP1 DUP3 SSTORE DUP1 SWAP2 POP POP PUSH1 0x1 SWAP1 SUB SWAP1 PUSH0 MSTORE PUSH1 0x20 PUSH0 KECCAK256 SWAP1 PUSH1 0x2 MUL ADD PUSH0 SWAP1 SWAP2 SWAP1 SWAP2 SWAP1 SWAP2 POP PUSH0 DUP3 ADD MLOAD DUP2 PUSH0 ADD SWAP1 DUP2 PUSH2 0x3E6 SWAP2 SWAP1 PUSH2 0xC59 JUMP JUMPDEST POP PUSH1 0x20 DUP3 ADD MLOAD DUP2 PUSH1 0x1 ADD SSTORE POP POP POP POP JUMP JUMPDEST PUSH1 0x60 PUSH2 0x401 PUSH2 0x5E1 JUMP JUMPDEST SWAP1 POP SWAP1 JUMP JUMPDEST PUSH0 PUSH1 0x3 PUSH0 PUSH2 0x100 EXP DUP2 SLOAD DUP2 PUSH1 0xFF MUL NOT AND SWAP1 DUP4 PUSH1 0x1 DUP2 GT ISZERO PUSH2 0x42A JUMPI PUSH2 0x429 PUSH2 0x92C JUMP JUMPDEST JUMPDEST MUL OR SWAP1 SSTORE POP JUMP JUMPDEST PUSH1 0x2 DUP2 DUP2 SLOAD DUP2 LT PUSH2 0x440 JUMPI PUSH0 DUP1 REVERT JUMPDEST SWAP1 PUSH0 MSTORE PUSH1 0x20 PUSH0 KECCAK256 SWAP1 PUSH1 0x2 MUL ADD PUSH0 SWAP2 POP SWAP1 POP DUP1 PUSH0 ADD DUP1 SLOAD PUSH2 0x45F SWAP1 PUSH2 0xA8C JUMP JUMPDEST DUP1 PUSH1 0x1F ADD PUSH1 0x20 DUP1 SWAP2 DIV MUL PUSH1 0x20 ADD PUSH1 0x40 MLOAD SWAP1 DUP2 ADD PUSH1 0x40 MSTORE DUP1 SWAP3 SWAP2 SWAP1 DUP2 DUP2 MSTORE PUSH1 0x20 ADD DUP3 DUP1 SLOAD PUSH2 0x48B SWAP1 PUSH2 0xA8C JUMP JUMPDEST DUP1 ISZERO PUSH2 0x4D6 JUMPI DUP1 PUSH1 0x1F LT PUSH2 0x4AD JUMPI PUSH2 0x100 DUP1 DUP4 SLOAD DIV MUL DUP4 MSTORE SWAP2 PUSH1 0x20 ADD SWAP2 PUSH2 0x4D6 JUMP JUMPDEST DUP3 ADD SWAP2 SWAP1 PUSH0 MSTORE PUSH1 0x20 PUSH0 KECCAK256 SWAP1 JUMPDEST DUP2 SLOAD DUP2 MSTORE SWAP1 PUSH1 0x1 ADD SWAP1 PUSH1 0x20 ADD DUP1 DUP4 GT PUSH2 0x4B9 JUMPI DUP3 SWAP1 SUB PUSH1 0x1F AND DUP3 ADD SWAP2 JUMPDEST POP POP POP POP POP SWAP1 DUP1 PUSH1 0x1 ADD SLOAD SWAP1 POP DUP3 JUMP JUMPDEST PUSH0 DUP1 SLOAD SWAP1 POP SWAP1 JUMP JUMPDEST PUSH1 0x1 DUP2 SWAP1 DUP1 PUSH1 0x1 DUP2 SLOAD ADD DUP1 DUP3 SSTORE DUP1 SWAP2 POP POP PUSH1 0x1 SWAP1 SUB SWAP1 PUSH0 MSTORE PUSH1 0x20 PUSH0 KECCAK256 ADD PUSH0 SWAP1 SWAP2 SWAP1 SWAP2 SWAP1 SWAP2 POP SSTORE POP JUMP JUMPDEST DUP1 PUSH0 DUP2 SWAP1 SSTORE POP POP JUMP JUMPDEST PUSH1 0x1 PUSH1 0x3 PUSH0 PUSH2 0x100 EXP DUP2 SLOAD DUP2 PUSH1 0xFF MUL NOT AND SWAP1 DUP4 PUSH1 0x1 DUP2 GT ISZERO PUSH2 0x545 JUMPI PUSH2 0x544 PUSH2 0x92C JUMP JUMPDEST JUMPDEST MUL OR SWAP1 SSTORE POP JUMP JUMPDEST PUSH1 0x3 PUSH0 SWAP1 SLOAD SWAP1 PUSH2 0x100 EXP SWAP1 DIV PUSH1 0xFF AND DUP2 JUMP JUMPDEST PUSH0 DUP2 PUSH0 SLOAD GT SWAP1 POP SWAP2 SWAP1 POP JUMP JUMPDEST PUSH1 0x60 ADDRESS PUSH20 0xFFFFFFFFFFFFFFFFFFFFFFFFFFFFFFFFFFFFFFFF AND PUSH4 0x3A32B549 PUSH1 0x40 MLOAD DUP2 PUSH4 0xFFFFFFFF AND PUSH1 0xE0 SHL DUP2 MSTORE PUSH1 0x4 ADD PUSH0 PUSH1 0x40 MLOAD DUP1 DUP4 SUB DUP2 DUP7 GAS STATICCALL ISZERO DUP1 ISZERO PUSH2 0x5B4 JUMPI RETURNDATASIZE PUSH0 DUP1 RETURNDATACOPY RETURNDATASIZE PUSH0 REVERT JUMPDEST POP POP POP POP PUSH1 0x40 MLOAD RETURNDATASIZE PUSH0 DUP3 RETURNDATACOPY RETURNDATASIZE PUSH1 0x1F NOT PUSH1 0x1F DUP3 ADD AND DUP3 ADD DUP1 PUSH1 0x40 MSTORE POP DUP2 ADD SWAP1 PUSH2 0x5DC SWAP2 SWAP1 PUSH2 0xD96 JUMP JUMPDEST SWAP1 POP SWAP1 JUMP JUMPDEST PUSH1 0x60 PUSH1 0x40 MLOAD DUP1 PUSH1 0x40 ADD PUSH1 0x40 MSTORE DUP1 PUSH1 0xE DUP2 MSTORE PUSH1 0x20 ADD PUSH32 0x596F7527726520617765736F6D65000000000000000000000000000000000000 DUP2 MSTORE POP SWAP1 POP SWAP1 JUMP JUMPDEST PUSH0 DUP2 SWAP1 POP SWAP2 SWAP1 POP JUMP JUMPDEST PUSH2 0x630 DUP2 PUSH2 0x61E JUMP JUMPDEST DUP3 MSTORE POP POP JUMP JUMPDEST PUSH0 PUSH1 0x20 DUP3 ADD SWAP1 POP PUSH2 0x649 PUSH0 DUP4 ADD DUP5 PUSH2 0x627 JUMP JUMPDEST SWAP3 SWAP2 POP POP JUMP JUMPDEST PUSH0 DUP2 ISZERO ISZERO SWAP1 POP SWAP2 SWAP1 POP JUMP JUMPDEST PUSH2 0x663 DUP2 PUSH2 0x64F JUMP JUMPDEST DUP3 MSTORE POP POP JUMP JUMPDEST PUSH0 PUSH1 0x20 DUP3 ADD SWAP1 POP PUSH2 0x67C PUSH0 DUP4 ADD DUP5 PUSH2 0x65A JUMP JUMPDEST SWAP3 SWAP2 POP POP JUMP JUMPDEST PUSH0 PUSH1 0x40 MLOAD SWAP1 POP SWAP1 JUMP JUMPDEST PUSH0 DUP1 REVERT JUMPDEST PUSH0 DUP1 REVERT JUMPDEST PUSH2 0x69C DUP2 PUSH2 0x61E JUMP JUMPDEST DUP2 EQ PUSH2 0x6A6 JUMPI PUSH0 DUP1 REVERT JUMPDEST POP JUMP JUMPDEST PUSH0 DUP2 CALLDATALOAD SWAP1 POP PUSH2 0x6B7 DUP2 PUSH2 0x693 JUMP JUMPDEST SWAP3 SWAP2 POP POP JUMP JUMPDEST PUSH0 PUSH1 0x20 DUP3 DUP5 SUB SLT ISZERO PUSH2 0x6D2 JUMPI PUSH2 0x6D1 PUSH2 0x68B JUMP JUMPDEST JUMPDEST PUSH0 PUSH2 0x6DF DUP5 DUP3 DUP6 ADD PUSH2 0x6A9 JUMP JUMPDEST SWAP2 POP POP SWAP3 SWAP2 POP POP JUMP JUMPDEST PUSH0 DUP2 MLOAD SWAP1 POP SWAP2 SWAP1 POP JUMP JUMPDEST PUSH0 DUP3 DUP3 MSTORE PUSH1 0x20 DUP3 ADD SWAP1 POP SWAP3 SWAP2 POP POP JUMP JUMPDEST DUP3 DUP2 DUP4 MCOPY PUSH0 DUP4 DUP4 ADD MSTORE POP POP POP JUMP JUMPDEST PUSH0 PUSH1 0x1F NOT PUSH1 0x1F DUP4 ADD AND SWAP1 POP SWAP2 SWAP1 POP JUMP JUMPDEST PUSH0 PUSH2 0x72A DUP3 PUSH2 0x6E8 JUMP JUMPDEST PUSH2 0x734 DUP2 DUP6 PUSH2 0x6F2 JUMP JUMPDEST SWAP4 POP PUSH2 0x744 DUP2 DUP6 PUSH1 0x20 DUP7 ADD PUSH2 0x702 JUMP JUMPDEST PUSH2 0x74D DUP2 PUSH2 0x710 JUMP JUMPDEST DUP5 ADD SWAP2 POP POP SWAP3 SWAP2 POP POP JUMP JUMPDEST PUSH0 PUSH1 0x20 DUP3 ADD SWAP1 POP DUP2 DUP2 SUB PUSH0 DUP4 ADD MSTORE PUSH2 0x770 DUP2 DUP5 PUSH2 0x720 JUMP JUMPDEST SWAP1 POP SWAP3 SWAP2 POP POP JUMP JUMPDEST PUSH0 DUP1 REVERT JUMPDEST PUSH0 DUP1 REVERT JUMPDEST PUSH32 0x4E487B7100000000000000000000000000000000000000000000000000000000 PUSH0 MSTORE PUSH1 0x41 PUSH1 0x4 MSTORE PUSH1 0x24 PUSH0 REVERT JUMPDEST PUSH2 0x7B6 DUP3 PUSH2 0x710 JUMP JUMPDEST DUP2 ADD DUP2 DUP2 LT PUSH8 0xFFFFFFFFFFFFFFFF DUP3 GT OR ISZERO PUSH2 0x7D5 JUMPI PUSH2 0x7D4 PUSH2 0x780 JUMP JUMPDEST JUMPDEST DUP1 PUSH1 0x40 MSTORE POP POP POP JUMP JUMPDEST PUSH0 PUSH2 0x7E7 PUSH2 0x682 JUMP JUMPDEST SWAP1 POP PUSH2 0x7F3 DUP3 DUP3 PUSH2 0x7AD JUMP JUMPDEST SWAP2 SWAP1 POP JUMP JUMPDEST PUSH0 PUSH8 0xFFFFFFFFFFFFFFFF DUP3 GT ISZERO PUSH2 0x812 JUMPI PUSH2 0x811 PUSH2 0x780 JUMP JUMPDEST JUMPDEST PUSH2 0x81B DUP3 PUSH2 0x710 JUMP JUMPDEST SWAP1 POP PUSH1 0x20 DUP2 ADD SWAP1 POP SWAP2 SWAP1 POP JUMP JUMPDEST DUP3 DUP2 DUP4 CALLDATACOPY PUSH0 DUP4 DUP4 ADD MSTORE POP POP POP JUMP JUMPDEST PUSH0 PUSH2 0x848 PUSH2 0x843 DUP5 PUSH2 0x7F8 JUMP JUMPDEST PUSH2 0x7DE JUMP JUMPDEST SWAP1 POP DUP3 DUP2 MSTORE PUSH1 0x20 DUP2 ADD DUP5 DUP5 DUP5 ADD GT ISZERO PUSH2 0x864 JUMPI PUSH2 0x863 PUSH2 0x77C JUMP JUMPDEST JUMPDEST PUSH2 0x86F DUP5 DUP3 DUP6 PUSH2 0x828 JUMP JUMPDEST POP SWAP4 SWAP3 POP POP POP JUMP JUMPDEST PUSH0 DUP3 PUSH1 0x1F DUP4 ADD SLT PUSH2 0x88B JUMPI PUSH2 0x88A PUSH2 0x778 JUMP JUMPDEST JUMPDEST DUP2 CALLDATALOAD PUSH2 0x89B DUP5 DUP3 PUSH1 0x20 DUP7 ADD PUSH2 0x836 JUMP JUMPDEST SWAP2 POP POP SWAP3 SWAP2 POP POP JUMP JUMPDEST PUSH0 DUP1 PUSH1 0x40 DUP4 DUP6 SUB SLT ISZERO PUSH2 0x8BA JUMPI PUSH2 0x8B9 PUSH2 0x68B JUMP JUMPDEST JUMPDEST PUSH0 DUP4 ADD CALLDATALOAD PUSH8 0xFFFFFFFFFFFFFFFF DUP2 GT ISZERO PUSH2 0x8D7 JUMPI PUSH2 0x8D6 PUSH2 0x68F JUMP JUMPDEST JUMPDEST PUSH2 0x8E3 DUP6 DUP3 DUP7 ADD PUSH2 0x877 JUMP JUMPDEST SWAP3 POP POP PUSH1 0x20 PUSH2 0x8F4 DUP6 DUP3 DUP7 ADD PUSH2 0x6A9 JUMP JUMPDEST SWAP2 POP POP SWAP3 POP SWAP3 SWAP1 POP JUMP JUMPDEST PUSH0 PUSH1 0x40 DUP3 ADD SWAP1 POP DUP2 DUP2 SUB PUSH0 DUP4 ADD MSTORE PUSH2 0x916 DUP2 DUP6 PUSH2 0x720 JUMP JUMPDEST SWAP1 POP PUSH2 0x925 PUSH1 0x20 DUP4 ADD DUP5 PUSH2 0x627 JUMP JUMPDEST SWAP4 SWAP3 POP POP POP JUMP JUMPDEST PUSH32 0x4E487B7100000000000000000000000000000000000000000000000000000000 PUSH0 MSTORE PUSH1 0x21 PUSH1 0x4 MSTORE PUSH1 0x24 PUSH0 REVERT JUMPDEST PUSH1 0x2 DUP2 LT PUSH2 0x96A JUMPI PUSH2 0x969 PUSH2 0x92C JUMP JUMPDEST JUMPDEST POP JUMP JUMPDEST PUSH0 DUP2 SWAP1 POP PUSH2 0x97A DUP3 PUSH2 0x959 JUMP JUMPDEST SWAP2 SWAP1 POP JUMP JUMPDEST PUSH0 PUSH2 0x989 DUP3 PUSH2 0x96D JUMP JUMPDEST SWAP1 POP SWAP2 SWAP1 POP JUMP JUMPDEST PUSH2 0x999 DUP2 PUSH2 0x97F JUMP JUMPDEST DUP3 MSTORE POP POP JUMP JUMPDEST PUSH0 PUSH1 0x20 DUP3 ADD SWAP1 POP PUSH2 0x9B2 PUSH0 DUP4 ADD DUP5 PUSH2 0x990 JUMP JUMPDEST SWAP3 SWAP2 POP POP JUMP JUMPDEST PUSH32 0x4E487B7100000000000000000000000000000000000000000000000000000000 PUSH0 MSTORE PUSH1 0x11 PUSH1 0x4 MSTORE PUSH1 0x24 PUSH0 REVERT JUMPDEST PUSH0 PUSH2 0x9EF DUP3 PUSH2 0x61E JUMP JUMPDEST SWAP2 POP PUSH2 0x9FA DUP4 PUSH2 0x61E JUMP JUMPDEST SWAP3 POP DUP3 DUP3 ADD SWAP1 POP DUP1 DUP3 GT ISZERO PUSH2 0xA12 JUMPI PUSH2 0xA11 PUSH2 0x9B8 JUMP JUMPDEST JUMPDEST SWAP3 SWAP2 POP POP JUMP JUMPDEST PUSH0 PUSH2 0xA22 DUP3 PUSH2 0x61E JUMP JUMPDEST SWAP2 POP PUSH32 0xFFFFFFFFFFFFFFFFFFFFFFFFFFFFFFFFFFFFFFFFFFFFFFFFFFFFFFFFFFFFFFFF DUP3 SUB PUSH2 0xA54 JUMPI PUSH2 0xA53 PUSH2 0x9B8 JUMP JUMPDEST JUMPDEST PUSH1 0x1 DUP3 ADD SWAP1 POP SWAP2 SWAP1 POP JUMP JUMPDEST PUSH32 0x4E487B7100000000000000000000000000000000000000000000000000000000 PUSH0 MSTORE PUSH1 0x22 PUSH1 0x4 MSTORE PUSH1 0x24 PUSH0 REVERT JUMPDEST PUSH0 PUSH1 0x2 DUP3 DIV SWAP1 POP PUSH1 0x1 DUP3 AND DUP1 PUSH2 0xAA3 JUMPI PUSH1 0x7F DUP3 AND SWAP2 POP JUMPDEST PUSH1 0x20 DUP3 LT DUP2 SUB PUSH2 0xAB6 JUMPI PUSH2 0xAB5 PUSH2 0xA5F JUMP JUMPDEST JUMPDEST POP SWAP2 SWAP1 POP JUMP JUMPDEST PUSH0 DUP2 SWAP1 POP DUP2 PUSH0 MSTORE PUSH1 0x20 PUSH0 KECCAK256 SWAP1 POP SWAP2 SWAP1 POP JUMP JUMPDEST PUSH0 PUSH1 0x20 PUSH1 0x1F DUP4 ADD DIV SWAP1 POP SWAP2 SWAP1 POP JUMP JUMPDEST PUSH0 DUP3 DUP3 SHL SWAP1 POP SWAP3 SWAP2 POP POP JUMP JUMPDEST PUSH0 PUSH1 0x8 DUP4 MUL PUSH2 0xB18 PUSH32 0xFFFFFFFFFFFFFFFFFFFFFFFFFFFFFFFFFFFFFFFFFFFFFFFFFFFFFFFFFFFFFFFF DUP3 PUSH2 0xADD JUMP JUMPDEST PUSH2 0xB22 DUP7 DUP4 PUSH2 0xADD JUMP JUMPDEST SWAP6 POP DUP1 NOT DUP5 AND SWAP4 POP DUP1 DUP7 AND DUP5 OR SWAP3 POP POP POP SWAP4 SWAP3 POP POP POP JUMP JUMPDEST PUSH0 DUP2 SWAP1 POP SWAP2 SWAP1 POP JUMP JUMPDEST PUSH0 PUSH2 0xB5D PUSH2 0xB58 PUSH2 0xB53 DUP5 PUSH2 0x61E JUMP JUMPDEST PUSH2 0xB3A JUMP JUMPDEST PUSH2 0x61E JUMP JUMPDEST SWAP1 POP SWAP2 SWAP1 POP JUMP JUMPDEST PUSH0 DUP2 SWAP1 POP SWAP2 SWAP1 POP JUMP JUMPDEST PUSH2 0xB76 DUP4 PUSH2 0xB43 JUMP JUMPDEST PUSH2 0xB8A PUSH2 0xB82 DUP3 PUSH2 0xB64 JUMP JUMPDEST DUP5 DUP5 SLOAD PUSH2 0xAE9 JUMP JUMPDEST DUP3 SSTORE POP POP POP POP JUMP JUMPDEST PUSH0 SWAP1 JUMP JUMPDEST PUSH2 0xB9E PUSH2 0xB92 JUMP JUMPDEST PUSH2 0xBA9 DUP2 DUP5 DUP5 PUSH2 0xB6D JUMP JUMPDEST POP POP POP JUMP JUMPDEST JUMPDEST DUP2 DUP2 LT ISZERO PUSH2 0xBCC JUMPI PUSH2 0xBC1 PUSH0 DUP3 PUSH2 0xB96 JUMP JUMPDEST PUSH1 0x1 DUP2 ADD SWAP1 POP PUSH2 0xBAF JUMP JUMPDEST POP POP JUMP JUMPDEST PUSH1 0x1F DUP3 GT ISZERO PUSH2 0xC11 JUMPI PUSH2 0xBE2 DUP2 PUSH2 0xABC JUMP JUMPDEST PUSH2 0xBEB DUP5 PUSH2 0xACE JUMP JUMPDEST DUP2 ADD PUSH1 0x20 DUP6 LT ISZERO PUSH2 0xBFA JUMPI DUP2 SWAP1 POP JUMPDEST PUSH2 0xC0E PUSH2 0xC06 DUP6 PUSH2 0xACE JUMP JUMPDEST DUP4 ADD DUP3 PUSH2 0xBAE JUMP JUMPDEST POP POP JUMPDEST POP POP POP JUMP JUMPDEST PUSH0 DUP3 DUP3 SHR SWAP1 POP SWAP3 SWAP2 POP POP JUMP JUMPDEST PUSH0 PUSH2 0xC31 PUSH0 NOT DUP5 PUSH1 0x8 MUL PUSH2 0xC16 JUMP JUMPDEST NOT DUP1 DUP4 AND SWAP2 POP POP SWAP3 SWAP2 POP POP JUMP JUMPDEST PUSH0 PUSH2 0xC49 DUP4 DUP4 PUSH2 0xC22 JUMP JUMPDEST SWAP2 POP DUP3 PUSH1 0x2 MUL DUP3 OR SWAP1 POP SWAP3 SWAP2 POP POP JUMP JUMPDEST PUSH2 0xC62 DUP3 PUSH2 0x6E8 JUMP JUMPDEST PUSH8 0xFFFFFFFFFFFFFFFF DUP2 GT ISZERO PUSH2 0xC7B JUMPI PUSH2 0xC7A PUSH2 0x780 JUMP JUMPDEST JUMPDEST PUSH2 0xC85 DUP3 SLOAD PUSH2 0xA8C JUMP JUMPDEST PUSH2 0xC90 DUP3 DUP3 DUP6 PUSH2 0xBD0 JUMP JUMPDEST PUSH0 PUSH1 0x20 SWAP1 POP PUSH1 0x1F DUP4 GT PUSH1 0x1 DUP2 EQ PUSH2 0xCC1 JUMPI PUSH0 DUP5 ISZERO PUSH2 0xCAF JUMPI DUP3 DUP8 ADD MLOAD SWAP1 POP JUMPDEST PUSH2 0xCB9 DUP6 DUP3 PUSH2 0xC3E JUMP JUMPDEST DUP7 SSTORE POP PUSH2 0xD20 JUMP JUMPDEST PUSH1 0x1F NOT DUP5 AND PUSH2 0xCCF DUP7 PUSH2 0xABC JUMP JUMPDEST PUSH0 JUMPDEST DUP3 DUP2 LT ISZERO PUSH2 0xCF6 JUMPI DUP5 DUP10 ADD MLOAD DUP3 SSTORE PUSH1 0x1 DUP3 ADD SWAP2 POP PUSH1 0x20 DUP6 ADD SWAP5 POP PUSH1 0x20 DUP2 ADD SWAP1 POP PUSH2 0xCD1 JUMP JUMPDEST DUP7 DUP4 LT ISZERO PUSH2 0xD13 JUMPI DUP5 DUP10 ADD MLOAD PUSH2 0xD0F PUSH1 0x1F DUP10 AND DUP3 PUSH2 0xC22 JUMP JUMPDEST DUP4 SSTORE POP JUMPDEST PUSH1 0x1 PUSH1 0x2 DUP9 MUL ADD DUP9 SSTORE POP POP POP JUMPDEST POP POP POP POP POP POP JUMP JUMPDEST PUSH0 PUSH2 0xD3A PUSH2 0xD35 DUP5 PUSH2 0x7F8 JUMP JUMPDEST PUSH2 0x7DE JUMP JUMPDEST SWAP1 POP DUP3 DUP2 MSTORE PUSH1 0x20 DUP2 ADD DUP5 DUP5 DUP5 ADD GT ISZERO PUSH2 0xD56 JUMPI PUSH2 0xD55 PUSH2 0x77C JUMP JUMPDEST JUMPDEST PUSH2 0xD61 DUP5 DUP3 DUP6 PUSH2 0x702 JUMP JUMPDEST POP SWAP4 SWAP3 POP POP POP JUMP JUMPDEST PUSH0 DUP3 PUSH1 0x1F DUP4 ADD SLT PUSH2 0xD7D JUMPI PUSH2 0xD7C PUSH2 0x778 JUMP JUMPDEST JUMPDEST DUP2 MLOAD PUSH2 0xD8D DUP5 DUP3 PUSH1 0x20 DUP7 ADD PUSH2 0xD28 JUMP JUMPDEST SWAP2 POP POP SWAP3 SWAP2 POP POP JUMP JUMPDEST PUSH0 PUSH1 0x20 DUP3 DUP5 SUB SLT ISZERO PUSH2 0xDAB JUMPI PUSH2 0xDAA PUSH2 0x68B JUMP JUMPDEST JUMPDEST PUSH0 DUP3 ADD MLOAD PUSH8 0xFFFFFFFFFFFFFFFF DUP2 GT ISZERO PUSH2 0xDC8 JUMPI PUSH2 0xDC7 PUSH2 0x68F JUMP JUMPDEST JUMPDEST PUSH2 0xDD4 DUP5 DUP3 DUP6 ADD PUSH2 0xD69 JUMP JUMPDEST SWAP2 POP POP SWAP3 SWAP2 POP POP JUMP INVALID LOG2 PUSH5 0x6970667358 0x22 SLT KECCAK256 PUSH24 0xCF6676B36789716A535C6D536B22D1E71021246851C8D4E7 DUP11 EXTCODESIZE PUSH19 0x45CAF41664736F6C634300081A003300000000 "
		},
		"gasEstimates": {
			"creation": {
				"codeDepositCost": "720600",
				"executionCost": "751",
				"totalCost": "721351"
			},
			"external": {
				"activateContract()": "24517",
				"addFavoriteNumber(uint256)": "46888",
				"addPerson(string,uint256)": "infinite",
				"callInternalFunction()": "infinite",
				"deactivateContract()": "24451",
				"externalFunction()": "infinite",
				"favoriteNumbers(uint256)": "infinite",
				"getFavoriteNumber()": "2477",
				"isActive()": "2577",
				"isGreaterThan(uint256)": "2770",
				"people(uint256)": "infinite",
				"state()": "2598",
				"storeNumber(uint256)": "22603",
				"sumToFavoriteNumber()": "infinite",
				"testExternalFunction()": "infinite"
			},
			"internal": {
				"internalFuction()": "infinite"
			}
		},
		"methodIdentifiers": {
			"activateContract()": "8fda356d",
			"addFavoriteNumber(uint256)": "a7e1a364",
			"addPerson(string,uint256)": "6f760f41",
			"callInternalFunction()": "8701f8ca",
			"deactivateContract()": "bca353be",
			"externalFunction()": "3a32b549",
			"favoriteNumbers(uint256)": "29cd1d96",
			"getFavoriteNumber()": "a621d15e",
			"isActive()": "22f3e2d4",
			"isGreaterThan(uint256)": "cb6a33f8",
			"people(uint256)": "9e7a13ad",
			"state()": "c19d93fb",
			"storeNumber(uint256)": "b6339418",
			"sumToFavoriteNumber()": "0cd2636e",
			"testExternalFunction()": "e0819c9a"
		}
	},
	"abi": [
		{
			"inputs": [],
			"name": "activateContract",
			"outputs": [],
			"stateMutability": "nonpayable",
			"type": "function"
		},
		{
			"inputs": [
				{
					"internalType": "uint256",
					"name": "_number",
					"type": "uint256"
				}
			],
			"name": "addFavoriteNumber",
			"outputs": [],
			"stateMutability": "nonpayable",
			"type": "function"
		},
		{
			"inputs": [
				{
					"internalType": "string",
					"name": "_name",
					"type": "string"
				},
				{
					"internalType": "uint256",
					"name": "_favoriteNumber",
					"type": "uint256"
				}
			],
			"name": "addPerson",
			"outputs": [],
			"stateMutability": "nonpayable",
			"type": "function"
		},
		{
			"inputs": [],
			"name": "callInternalFunction",
			"outputs": [
				{
					"internalType": "string",
					"name": "",
					"type": "string"
				}
			],
			"stateMutability": "pure",
			"type": "function"
		},
		{
			"inputs": [],
			"name": "deactivateContract",
			"outputs": [],
			"stateMutability": "nonpayable",
			"type": "function"
		},
		{
			"inputs": [],
			"name": "externalFunction",
			"outputs": [
				{
					"internalType": "string",
					"name": "",
					"type": "string"
				}
			],
			"stateMutability": "pure",
			"type": "function"
		},
		{
			"inputs": [
				{
					"internalType": "uint256",
					"name": "",
					"type": "uint256"
				}
			],
			"name": "favoriteNumbers",
			"outputs": [
				{
					"internalType": "uint256",
					"name": "",
					"type": "uint256"
				}
			],
			"stateMutability": "view",
			"type": "function"
		},
		{
			"inputs": [],
			"name": "getFavoriteNumber",
			"outputs": [
				{
					"internalType": "uint256",
					"name": "",
					"type": "uint256"
				}
			],
			"stateMutability": "view",
			"type": "function"
		},
		{
			"inputs": [],
			"name": "isActive",
			"outputs": [
				{
					"internalType": "bool",
					"name": "",
					"type": "bool"
				}
			],
			"stateMutability": "view",
			"type": "function"
		},
		{
			"inputs": [
				{
					"internalType": "uint256",
					"name": "_value",
					"type": "uint256"
				}
			],
			"name": "isGreaterThan",
			"outputs": [
				{
					"internalType": "bool",
					"name": "",
					"type": "bool"
				}
			],
			"stateMutability": "view",
			"type": "function"
		},
		{
			"inputs": [
				{
					"internalType": "uint256",
					"name": "",
					"type": "uint256"
				}
			],
			"name": "people",
			"outputs": [
				{
					"internalType": "string",
					"name": "name",
					"type": "string"
				},
				{
					"internalType": "uint256",
					"name": "favoriteNumber",
					"type": "uint256"
				}
			],
			"stateMutability": "view",
			"type": "function"
		},
		{
			"inputs": [],
			"name": "state",
			"outputs": [
				{
					"internalType": "enum SimpleStorage.ContractState",
					"name": "",
					"type": "uint8"
				}
			],
			"stateMutability": "view",
			"type": "function"
		},
		{
			"inputs": [
				{
					"internalType": "uint256",
					"name": "_number",
					"type": "uint256"
				}
			],
			"name": "storeNumber",
			"outputs": [],
			"stateMutability": "nonpayable",
			"type": "function"
		},
		{
			"inputs": [],
			"name": "sumToFavoriteNumber",
			"outputs": [
				{
					"internalType": "uint256",
					"name": "",
					"type": "uint256"
				}
			],
			"stateMutability": "view",
			"type": "function"
		},
		{
			"inputs": [],
			"name": "testExternalFunction",
			"outputs": [
				{
					"internalType": "string",
					"name": "",
					"type": "string"
				}
			],
			"stateMutability": "view",
			"type": "function"
		}
	]
}